{
  "contractName": "SupplyChain",
  "abi": [
    {
      "anonymous": false,
      "inputs": [
        {
          "indexed": false,
          "internalType": "address",
          "name": "_LandID",
          "type": "address"
        }
      ],
      "name": "LandCreated",
      "type": "event"
    },
    {
      "anonymous": false,
      "inputs": [
        {
          "indexed": false,
          "internalType": "address",
          "name": "_oliveID",
          "type": "address"
        }
      ],
      "name": "OliveHarvested",
      "type": "event"
    },
    {
      "anonymous": false,
      "inputs": [
        {
          "indexed": false,
          "internalType": "address",
          "name": "_oliveID",
          "type": "address"
        }
      ],
      "name": "OlivePlanted",
      "type": "event"
    },
    {
      "constant": false,
      "inputs": [
        {
          "internalType": "string",
          "name": "_geoLoc",
          "type": "string"
        },
        {
          "internalType": "string",
          "name": "_sailTyp",
          "type": "string"
        },
        {
          "internalType": "uint256",
          "name": "_alt",
          "type": "uint256"
        },
        {
          "internalType": "uint256",
          "name": "_nbTree",
          "type": "uint256"
        },
        {
          "internalType": "uint256",
          "name": "_originFarmerID",
          "type": "uint256"
        }
      ],
      "name": "addLand",
      "outputs": [],
      "payable": false,
      "stateMutability": "nonpayable",
      "type": "function"
    },
    {
      "constant": false,
      "inputs": [
        {
          "internalType": "address",
          "name": "ownerID",
          "type": "address"
        },
        {
          "internalType": "uint256",
          "name": "landID",
          "type": "uint256"
        },
        {
          "internalType": "string",
          "name": "numberTree",
          "type": "string"
        },
        {
          "internalType": "string",
          "name": "oliveVariety",
          "type": "string"
        },
        {
          "internalType": "string",
          "name": "plantingDate",
          "type": "string"
        }
      ],
      "name": "olivePlantItem",
      "outputs": [],
      "payable": false,
      "stateMutability": "nonpayable",
      "type": "function"
    },
    {
      "constant": false,
      "inputs": [
        {
          "internalType": "address",
          "name": "_oliveID",
          "type": "address"
        }
      ],
      "name": "oliveHarvestItem",
      "outputs": [],
      "payable": false,
      "stateMutability": "nonpayable",
      "type": "function"
    }
  ],
  "bytecode": "0x608060405234801561001057600080fd5b50610bf0806100206000396000f3fe608060405234801561001057600080fd5b50600436106100415760003560e01c806320c65ca6146100465780635c46e6b614610259578063dad252d51461029d575b600080fd5b610257600480360360a081101561005c57600080fd5b81019080803573ffffffffffffffffffffffffffffffffffffffff16906020019092919080359060200190929190803590602001906401000000008111156100a357600080fd5b8201836020820111156100b557600080fd5b803590602001918460018302840111640100000000831117156100d757600080fd5b91908080601f016020809104026020016040519081016040528093929190818152602001838380828437600081840152601f19601f8201169050808301925050505050505091929192908035906020019064010000000081111561013a57600080fd5b82018360208201111561014c57600080fd5b8035906020019184600183028401116401000000008311171561016e57600080fd5b91908080601f016020809104026020016040519081016040528093929190818152602001838380828437600081840152601f19601f820116905080830192505050505050509192919290803590602001906401000000008111156101d157600080fd5b8201836020820111156101e357600080fd5b8035906020019184600183028401116401000000008311171561020557600080fd5b91908080601f016020809104026020016040519081016040528093929190818152602001838380828437600081840152601f19601f82011690508083019250505050505050919291929050505061040d565b005b61029b6004803603602081101561026f57600080fd5b81019080803573ffffffffffffffffffffffffffffffffffffffff16906020019092919050505061064b565b005b61040b600480360360a08110156102b357600080fd5b81019080803590602001906401000000008111156102d057600080fd5b8201836020820111156102e257600080fd5b8035906020019184600183028401116401000000008311171561030457600080fd5b91908080601f016020809104026020016040519081016040528093929190818152602001838380828437600081840152601f19601f8201169050808301925050505050505091929192908035906020019064010000000081111561036757600080fd5b82018360208201111561037957600080fd5b8035906020019184600183028401116401000000008311171561039b57600080fd5b91908080601f016020809104026020016040519081016040528093929190818152602001838380828437600081840152601f19601f820116905080830192505050505050509192919290803590602001909291908035906020019092919080359060200190929190505050610873565b005b610415610a73565b6040518060c001604052808773ffffffffffffffffffffffffffffffffffffffff1681526020018681526020018581526020018481526020018381526020016000600381111561046157fe5b815250905060003343604051602001808373ffffffffffffffffffffffffffffffffffffffff1673ffffffffffffffffffffffffffffffffffffffff1660601b8152601401828152602001925050506040516020818303038152906040528051906020012060001c905081600260008373ffffffffffffffffffffffffffffffffffffffff1673ffffffffffffffffffffffffffffffffffffffff16815260200190815260200160002060008201518160000160006101000a81548173ffffffffffffffffffffffffffffffffffffffff021916908373ffffffffffffffffffffffffffffffffffffffff160217905550602082015181600101556040820151816002019080519060200190610578929190610aca565b506060820151816003019080519060200190610595929190610aca565b5060808201518160040190805190602001906105b2929190610aca565b5060a08201518160050160006101000a81548160ff021916908360038111156105d757fe5b02179055509050507f260c237b047ef8f9c081e58c932ea779200fac37d5e8780170b889cb98b4651681604051808273ffffffffffffffffffffffffffffffffffffffff1673ffffffffffffffffffffffffffffffffffffffff16815260200191505060405180910390a150505050505050565b806000600381111561065957fe5b600260008373ffffffffffffffffffffffffffffffffffffffff1673ffffffffffffffffffffffffffffffffffffffff16815260200190815260200160002060050160009054906101000a900460ff1660038111156106b457fe5b14610727576040517f08c379a000000000000000000000000000000000000000000000000000000000815260040180806020018281038252600b8152602001807f6e6f7420506c616e74656400000000000000000000000000000000000000000081525060200191505060405180910390fd5b33600260008473ffffffffffffffffffffffffffffffffffffffff1673ffffffffffffffffffffffffffffffffffffffff16815260200190815260200160002060000160006101000a81548173ffffffffffffffffffffffffffffffffffffffff021916908373ffffffffffffffffffffffffffffffffffffffff1602179055506001600260008473ffffffffffffffffffffffffffffffffffffffff1673ffffffffffffffffffffffffffffffffffffffff16815260200190815260200160002060050160006101000a81548160ff0219169083600381111561080757fe5b02179055507fdf625ba90e2439e1b7fe4e077534b96f390a91277139e7474e718da9660d481882604051808273ffffffffffffffffffffffffffffffffffffffff1673ffffffffffffffffffffffffffffffffffffffff16815260200191505060405180910390a15050565b60003343604051602001808373ffffffffffffffffffffffffffffffffffffffff1673ffffffffffffffffffffffffffffffffffffffff1660601b8152601401828152602001925050506040516020818303038152906040528051906020012060001c90506108e0610b4a565b6040518060c001604052808373ffffffffffffffffffffffffffffffffffffffff16815260200188815260200187815260200186815260200185815260200184815250905080600160008473ffffffffffffffffffffffffffffffffffffffff1673ffffffffffffffffffffffffffffffffffffffff16815260200190815260200160002060008201518160000160006101000a81548173ffffffffffffffffffffffffffffffffffffffff021916908373ffffffffffffffffffffffffffffffffffffffff16021790555060208201518160010190805190602001906109c8929190610aca565b5060408201518160020190805190602001906109e5929190610aca565b50606082015181600301556080820151816004015560a082015181600501559050507f633a583eca39761ad94371f5e5b21177609345bcd86c0921495021e3604fe18b82604051808273ffffffffffffffffffffffffffffffffffffffff1673ffffffffffffffffffffffffffffffffffffffff16815260200191505060405180910390a150505050505050565b6040518060c00160405280600073ffffffffffffffffffffffffffffffffffffffff1681526020016000815260200160608152602001606081526020016060815260200160006003811115610ac457fe5b81525090565b828054600181600116156101000203166002900490600052602060002090601f016020900481019282601f10610b0b57805160ff1916838001178555610b39565b82800160010185558215610b39579182015b82811115610b38578251825591602001919060010190610b1d565b5b509050610b469190610b96565b5090565b6040518060c00160405280600073ffffffffffffffffffffffffffffffffffffffff16815260200160608152602001606081526020016000815260200160008152602001600081525090565b610bb891905b80821115610bb4576000816000905550600101610b9c565b5090565b9056fea265627a7a7231582011ce9f8b66add8f56532ea9a928b5982c72862e2e86b97e6040318cf897d2def64736f6c63430005100032",
  "source": "// SPDX-License-Identifier: MIT\n\npragma solidity  >=0.4.22;\n\n\n\n// Define a contract 'Supplychain'\ncontract SupplyChain\n   \n{\n    // Define a variable called 'sku' for Stock Keeping Unit (SKU)\n    uint256 sku_cnt;\n    // olive_upc -> oliveItem\n    mapping(address => LandPlot) landPlots;\n\n    // olive_upc -> oliveItem\n    mapping(address => OliveItem) oliveItems;\n   \n    // oil_upc -> olive_upc[]\n    mapping(uint256 => uint256[]) oilolives;\n\n    // Define enum 'State' with the following values:\n    enum OliveState {\n        Planted,\n        Harvested,\n        Audited,\n        Processed\n    }\n    OliveState constant defaultOliveState = OliveState.Planted;\n\n    // Define a struct 'oliveItem' with the following fields:\n    struct LandPlot {\n        address id_land;\n        string geo_loc;\n        string sail_typ; \n        uint alt; \n        uint nb_tree; \n        uint id_farmer;\n    }\n    // Define a struct 'oliveItem' with the following fields:\n    struct OliveItem {\n        address ownerID; // Metamask-Ethereum address of the current owner as the product moves through stages\n        uint landID; // Metamask-Ethereum address of the Farmer\n        string numberTree; // number Tree\n        string oliveVariety; // olive Variety\n        string plantingDate; // planting Date\n        OliveState itemState; // Product State as represented in the enum above\n    }\n\n   \n\n    // Define events of olives\n    event LandCreated(address _LandID);\n    event OlivePlanted(address _oliveID);\n    event OliveHarvested(address _oliveID);\n    \n\n   \n\n    \n    // Define a modifier that checks if an oliveItem.state of a upc is Planted\n    modifier isPlanted(address _oliveID) {\n        require(\n            oliveItems[_oliveID].itemState == OliveState.Planted,\n            \"not Planted\"\n        );\n        _;\n    }\n\n    // Define a modifier that checks if an oliveItem.state of a upc is Harvested\n    modifier isHarvested(address _oliveID) {\n        require(\n            oliveItems[_oliveID].itemState == OliveState.Harvested,\n            \"not Harvested\"\n        );\n        _;\n    }\n\n   \n\n \n\n    function addLand( \n        string memory _geoLoc,\n        string memory _sailTyp,\n        uint256 _alt,\n        uint256 _nbTree,\n        uint _originFarmerID\n    ) public {\n        address _LandID = address(uint160(uint(keccak256(abi.encodePacked(msg.sender, block.number))))); // generate a new unique Ethereum address\n        // Add the new item as part of Harvest\n         LandPlot memory newLandPlot = LandPlot({\n            id_land : _LandID,\n            geo_loc : _geoLoc,\n            sail_typ : _sailTyp,\n            alt : _alt,\n            nb_tree : _nbTree,\n            id_farmer : _originFarmerID\n            });\n\n        landPlots[_LandID] = newLandPlot;\n        \n    \n        // Emit the appropriate event\n        emit LandCreated(_LandID);\n    }\n    // Transfer Eth to owner and terminate contract\n   \n    // Define a function 'olivePlantItem' that allows a farmer to mark an item 'Planted'\n    function olivePlantItem(\n        address ownerID,\n        uint landID, \n        string memory numberTree,\n        string memory oliveVariety,\n        string memory plantingDate\n\n        \n    ) public {\n        OliveItem memory newOliveItem = OliveItem({\n            ownerID : ownerID,\n            landID : landID,\n            numberTree : numberTree,\n            oliveVariety :oliveVariety,\n            plantingDate : plantingDate,\n            itemState : OliveState.Planted\n            });\n        address _oliveID = address(uint160(uint(keccak256(abi.encodePacked(msg.sender, block.number))))); // generate a new unique Ethereum address\n\n        oliveItems[_oliveID] = newOliveItem;\n        \n        emit OlivePlanted(_oliveID);\n    }\n\n    // Define a function 'oliveHarvestItem' that allows a farmer to mark an item 'Harvested'\n    function oliveHarvestItem(\n        address _oliveID\n\n    ) public  isPlanted(_oliveID) {\n        // Add the new item as part of Harvest\n        oliveItems[_oliveID].ownerID = msg.sender;\n        \n        // Update state\n        oliveItems[_oliveID].itemState = OliveState.Harvested;\n        // Emit the appropriate event\n        emit OliveHarvested(_oliveID);\n    }\n\n}\n/*\npragma solidity pragma solidity >=0.4.22 <0.9.0;\n\n\ncontract Supplychain{\n\n    // Variable for Stock keeping Unit (SKU) named 'sku'\n//-------------------------------------------\n\n    //MAPPING:\n    // Olive_upc -> OliveItem\n    //Oil_upc -> OilItem\n    //Oil_upc -> olive_upc[]\n//-------------------------------------------\n\n    //Olive States{planted, harvested, audited, processed}\n    \n    // Oil States{Created,Blended,Produced,Certified,Packed,ForSale,Purchased}\n    //Etat par defaut: Created\n//-------------------------------------------\n\n    //struct Olive Item\n    //struct Oil Item\n//-------------------------------------------\n    // for each enum create an event:\n\n    // event OlivePlanted\n    // event OliveHarvested\n    // event OliveAudited\n    // event OliveProcessed\n    \n    //event OilCreated\n    //event OilBlended\n    //event OilProduced\n    //event OilPacked\n    //event OilCertified\n    //event OilForSale\n    //event OilPurshased\n\n//-------------------------------------------\n\n    // modifiers:\n\n    //modifer that verifies the Caller\n    //modifier that checks if the paid amount is sufficient to cover the price\n    // modifier that checks the price and refunds the remaining balance\n    // modifier that checks if an OliveItem.state of a upc is Planted\n    // modifier that checks if an OliveItem.state of a upc is Harvested\n    // modifier that checks if an OliveItem.state of a upc is Audited\n    // modifier that checks if an OliveItem.state of a upc is Processed\n    // modifier that checks if an OilItem.state of a upc is Created\n    // modifier that checks if an OilItem.state of a upc is Blended\n    // modifier that checks if an OilItem.state of a upc is Produced\n    // modifier that checks if an OilItem.state of a upc is Packed\n    // modifier that checks if an OilItem.state of a upc is Certified\n    // modifier that checks if an OilItem.state of a upc is ForSale\n    // modifier that checks if an OilItem.state of a upc is Purchased\n//-------------------------------------------\n    //Constructor to initiate the value of sku to 1\n//-------------------------------------------\n\n\n    // function 'OlivePlantItem' that allows a farmer to mark an item 'Planted'\n    // function 'grapeHarvestItem' that allows a farmer to mark an item 'Harvested'\n    // function 'grapeAuditItem' that allows a Inspector to mark an item 'Audited'\n    // function 'grapeProcessItem' that allows a farmer to mark an item 'Processed'\n    // function OilCreateItem()\n    // function OilBlendItem()\n    // function OilProduceItem()\n    // function OilCertifyItem()\n    // function OilPackItem()\n    // function OilSellItem()\n    // function OilBuyItem\n    // Functions to fetch data:\n        // fetchOilItem\n        // fetchOliveItem\n        // fetchOliveState\n}\n*/\n",
  "sourcePath": "D:\\securite-books\\olive1\\newTest\\pfa\\contracts\\Supplychain.sol",
  "compiler": {
    "name": "solc",
    "version": "0.5.16+commit.9c3226ce.Emscripten.clang"
  },
  "schemaVersion": "3.4.13",
  "updatedAt": "2023-04-07T03:34:33.553Z",
  "devdoc": {
    "methods": {}
  },
  "userdoc": {
    "methods": {}
  }
}