{
  "contractName": "SupplyChain",
  "abi": [
    {
      "anonymous": false,
      "inputs": [
        {
          "indexed": false,
          "internalType": "address",
          "name": "_idLand",
          "type": "address"
        }
      ],
      "name": "LandCreated",
      "type": "event"
    },
    {
      "anonymous": false,
      "inputs": [
        {
          "indexed": false,
          "internalType": "address",
          "name": "_oliveID",
          "type": "address"
        }
      ],
      "name": "OliveHarvested",
      "type": "event"
    },
    {
      "anonymous": false,
      "inputs": [
        {
          "indexed": false,
          "internalType": "address",
          "name": "_oliveID",
          "type": "address"
        }
      ],
      "name": "OlivePlanted",
      "type": "event"
    },
    {
      "anonymous": false,
      "inputs": [
        {
          "indexed": false,
          "internalType": "address",
          "name": "_oliveID",
          "type": "address"
        }
      ],
      "name": "OliveProduced",
      "type": "event"
    },
    {
      "constant": false,
      "inputs": [
        {
          "internalType": "string",
          "name": "_geoLoc",
          "type": "string"
        },
        {
          "internalType": "string",
          "name": "_sailTyp",
          "type": "string"
        },
        {
          "internalType": "uint256",
          "name": "_alt",
          "type": "uint256"
        },
        {
          "internalType": "uint256",
          "name": "_nbTree",
          "type": "uint256"
        },
        {
          "internalType": "uint256",
          "name": "_originFarmerID",
          "type": "uint256"
        }
      ],
      "name": "addLand",
      "outputs": [],
      "payable": false,
      "stateMutability": "nonpayable",
      "type": "function"
    },
    {
      "constant": false,
      "inputs": [
        {
          "internalType": "address",
          "name": "ownerID",
          "type": "address"
        },
        {
          "internalType": "uint256",
          "name": "landID",
          "type": "uint256"
        },
        {
          "internalType": "string",
          "name": "numberTree",
          "type": "string"
        },
        {
          "internalType": "string",
          "name": "oliveVariety",
          "type": "string"
        },
        {
          "internalType": "string",
          "name": "plantingDate",
          "type": "string"
        }
      ],
      "name": "olivePlantItem",
      "outputs": [],
      "payable": false,
      "stateMutability": "nonpayable",
      "type": "function"
    },
    {
      "constant": false,
      "inputs": [
        {
          "internalType": "address",
          "name": "_oliveID",
          "type": "address"
        }
      ],
      "name": "oliveHarvestItem",
      "outputs": [],
      "payable": false,
      "stateMutability": "nonpayable",
      "type": "function"
    },
    {
      "constant": false,
      "inputs": [
        {
          "internalType": "address",
          "name": "_oliveID",
          "type": "address"
        }
      ],
      "name": "oliveProducetItem",
      "outputs": [],
      "payable": false,
      "stateMutability": "nonpayable",
      "type": "function"
    },
    {
      "constant": false,
      "inputs": [
        {
          "internalType": "address",
          "name": "_oliveID",
          "type": "address"
        },
        {
          "internalType": "string",
          "name": "_certName",
          "type": "string"
        },
        {
          "internalType": "string",
          "name": "_certAgency",
          "type": "string"
        },
        {
          "internalType": "string",
          "name": "_certDate",
          "type": "string"
        },
        {
          "internalType": "string",
          "name": "_certValidUntil",
          "type": "string"
        },
        {
          "internalType": "string",
          "name": "_ipfsURL",
          "type": "string"
        }
      ],
      "name": "createCertification",
      "outputs": [],
      "payable": false,
      "stateMutability": "nonpayable",
      "type": "function"
    },
    {
      "constant": true,
      "inputs": [
        {
          "internalType": "address",
          "name": "_oliveID",
          "type": "address"
        }
      ],
      "name": "getCertifications",
      "outputs": [
        {
          "components": [
            {
              "internalType": "address",
              "name": "certID",
              "type": "address"
            },
            {
              "internalType": "string",
              "name": "certName",
              "type": "string"
            },
            {
              "internalType": "string",
              "name": "certAgency",
              "type": "string"
            },
            {
              "internalType": "string",
              "name": "certDate",
              "type": "string"
            },
            {
              "internalType": "string",
              "name": "certValidUntil",
              "type": "string"
            },
            {
              "internalType": "address",
              "name": "oliveID",
              "type": "address"
            },
            {
              "internalType": "string",
              "name": "ipfsUrl",
              "type": "string"
            }
          ],
          "internalType": "struct SupplyChain.CertificationItem[]",
          "name": "",
          "type": "tuple[]"
        }
      ],
      "payable": false,
      "stateMutability": "view",
      "type": "function"
    }
  ],
  "bytecode": "0x608060405234801561001057600080fd5b50611a3f806100206000396000f3fe608060405234801561001057600080fd5b50600436106100625760003560e01c806320c65ca6146100675780635c46e6b614610083578063677cc2911461009f578063758ed17e146100cf5780639e35f7c0146100eb578063dad252d514610107575b600080fd5b610081600480360361007c919081019061137e565b610123565b005b61009d60048036036100989190810190611254565b610363565b005b6100b960048036036100b49190810190611254565b61052b565b6040516100c691906117b1565b60405180910390f35b6100e960048036036100e4919081019061127d565b61099f565b005b61010560048036036101009190810190611254565b610ca1565b005b610121600480360361011c919081019061143d565b610e6a565b005b6000334360405160200161013892919061176a565b6040516020818303038152906040528051906020012060001c905061015b611008565b6040518060e001604052808373ffffffffffffffffffffffffffffffffffffffff1681526020018873ffffffffffffffffffffffffffffffffffffffff168152602001878152602001868152602001858152602001848152602001600060048111156101c357fe5b815250905080600160008473ffffffffffffffffffffffffffffffffffffffff1673ffffffffffffffffffffffffffffffffffffffff16815260200190815260200160002060008201518160000160006101000a81548173ffffffffffffffffffffffffffffffffffffffff021916908373ffffffffffffffffffffffffffffffffffffffff16021790555060208201518160010160006101000a81548173ffffffffffffffffffffffffffffffffffffffff021916908373ffffffffffffffffffffffffffffffffffffffff1602179055506040820151816002015560608201518160030190805190602001906102bc92919061107c565b5060808201518160040190805190602001906102d992919061107c565b5060a08201518160050190805190602001906102f692919061107c565b5060c08201518160060160006101000a81548160ff0219169083600481111561031b57fe5b02179055509050507f260c237b047ef8f9c081e58c932ea779200fac37d5e8780170b889cb98b46516826040516103529190611796565b60405180910390a150505050505050565b806000600481111561037157fe5b600160008373ffffffffffffffffffffffffffffffffffffffff1673ffffffffffffffffffffffffffffffffffffffff16815260200190815260200160002060060160009054906101000a900460ff1660048111156103cc57fe5b1461040c576040517f08c379a000000000000000000000000000000000000000000000000000000000815260040161040390611813565b60405180910390fd5b33600160008473ffffffffffffffffffffffffffffffffffffffff1673ffffffffffffffffffffffffffffffffffffffff16815260200190815260200160002060010160006101000a81548173ffffffffffffffffffffffffffffffffffffffff021916908373ffffffffffffffffffffffffffffffffffffffff16021790555060018060008473ffffffffffffffffffffffffffffffffffffffff1673ffffffffffffffffffffffffffffffffffffffff16815260200190815260200160002060060160006101000a81548160ff021916908360048111156104eb57fe5b02179055507fdf625ba90e2439e1b7fe4e077534b96f390a91277139e7474e718da9660d48188260405161051f9190611796565b60405180910390a15050565b6060600360008373ffffffffffffffffffffffffffffffffffffffff1673ffffffffffffffffffffffffffffffffffffffff168152602001908152602001600020805480602002602001604051908101604052809291908181526020016000905b8282101561099457838290600052602060002090600702016040518060e00160405290816000820160009054906101000a900473ffffffffffffffffffffffffffffffffffffffff1673ffffffffffffffffffffffffffffffffffffffff1673ffffffffffffffffffffffffffffffffffffffff168152602001600182018054600181600116156101000203166002900480601f01602080910402602001604051908101604052809291908181526020018280546001816001161561010002031660029004801561069e5780601f106106735761010080835404028352916020019161069e565b820191906000526020600020905b81548152906001019060200180831161068157829003601f168201915b50505050508152602001600282018054600181600116156101000203166002900480601f0160208091040260200160405190810160405280929190818152602001828054600181600116156101000203166002900480156107405780601f1061071557610100808354040283529160200191610740565b820191906000526020600020905b81548152906001019060200180831161072357829003601f168201915b50505050508152602001600382018054600181600116156101000203166002900480601f0160208091040260200160405190810160405280929190818152602001828054600181600116156101000203166002900480156107e25780601f106107b7576101008083540402835291602001916107e2565b820191906000526020600020905b8154815290600101906020018083116107c557829003601f168201915b50505050508152602001600482018054600181600116156101000203166002900480601f0160208091040260200160405190810160405280929190818152602001828054600181600116156101000203166002900480156108845780601f1061085957610100808354040283529160200191610884565b820191906000526020600020905b81548152906001019060200180831161086757829003601f168201915b505050505081526020016005820160009054906101000a900473ffffffffffffffffffffffffffffffffffffffff1673ffffffffffffffffffffffffffffffffffffffff1673ffffffffffffffffffffffffffffffffffffffff168152602001600682018054600181600116156101000203166002900480601f01602080910402602001604051908101604052809291908181526020018280546001816001161561010002031660029004801561097c5780601f106109515761010080835404028352916020019161097c565b820191906000526020600020905b81548152906001019060200180831161095f57829003601f168201915b5050505050815250508152602001906001019061058c565b505050509050919050565b600073ffffffffffffffffffffffffffffffffffffffff16600160008873ffffffffffffffffffffffffffffffffffffffff1673ffffffffffffffffffffffffffffffffffffffff16815260200190815260200160002060010160009054906101000a900473ffffffffffffffffffffffffffffffffffffffff1673ffffffffffffffffffffffffffffffffffffffff161415610a71576040517f08c379a0000000000000000000000000000000000000000000000000000000008152600401610a68906117d3565b60405180910390fd5b60003343604051602001610a8692919061176a565b6040516020818303038152906040528051906020012060001c9050610aa96110fc565b6040518060e001604052808373ffffffffffffffffffffffffffffffffffffffff1681526020018881526020018781526020018681526020018581526020018973ffffffffffffffffffffffffffffffffffffffff168152602001848152509050600360008973ffffffffffffffffffffffffffffffffffffffff1673ffffffffffffffffffffffffffffffffffffffff168152602001908152602001600020819080600181540180825580915050906001820390600052602060002090600702016000909192909190915060008201518160000160006101000a81548173ffffffffffffffffffffffffffffffffffffffff021916908373ffffffffffffffffffffffffffffffffffffffff1602179055506020820151816001019080519060200190610bd892919061107c565b506040820151816002019080519060200190610bf592919061107c565b506060820151816003019080519060200190610c1292919061107c565b506080820151816004019080519060200190610c2f92919061107c565b5060a08201518160050160006101000a81548173ffffffffffffffffffffffffffffffffffffffff021916908373ffffffffffffffffffffffffffffffffffffffff16021790555060c0820151816006019080519060200190610c9392919061107c565b505050505050505050505050565b8060016004811115610caf57fe5b600160008373ffffffffffffffffffffffffffffffffffffffff1673ffffffffffffffffffffffffffffffffffffffff16815260200190815260200160002060060160009054906101000a900460ff166004811115610d0a57fe5b14610d4a576040517f08c379a0000000000000000000000000000000000000000000000000000000008152600401610d41906117f3565b60405180910390fd5b33600160008473ffffffffffffffffffffffffffffffffffffffff1673ffffffffffffffffffffffffffffffffffffffff16815260200190815260200160002060010160006101000a81548173ffffffffffffffffffffffffffffffffffffffff021916908373ffffffffffffffffffffffffffffffffffffffff1602179055506002600160008473ffffffffffffffffffffffffffffffffffffffff1673ffffffffffffffffffffffffffffffffffffffff16815260200190815260200160002060060160006101000a81548160ff02191690836004811115610e2a57fe5b02179055507f40d48790f66b749a98451777ddcb02fcc5d9de62421fa16a27df78034acdfc2082604051610e5e9190611796565b60405180910390a15050565b60003343604051602001610e7f92919061176a565b6040516020818303038152906040528051906020012060001c9050610ea2611165565b6040518060c001604052808373ffffffffffffffffffffffffffffffffffffffff168152602001888152602001878152602001868152602001858152602001848152509050806000808473ffffffffffffffffffffffffffffffffffffffff1673ffffffffffffffffffffffffffffffffffffffff16815260200190815260200160002060008201518160000160006101000a81548173ffffffffffffffffffffffffffffffffffffffff021916908373ffffffffffffffffffffffffffffffffffffffff1602179055506020820151816001019080519060200190610f8992919061107c565b506040820151816002019080519060200190610fa692919061107c565b50606082015181600301556080820151816004015560a082015181600501559050507f633a583eca39761ad94371f5e5b21177609345bcd86c0921495021e3604fe18b82604051610ff79190611796565b60405180910390a150505050505050565b6040518060e00160405280600073ffffffffffffffffffffffffffffffffffffffff168152602001600073ffffffffffffffffffffffffffffffffffffffff168152602001600081526020016060815260200160608152602001606081526020016000600481111561107657fe5b81525090565b828054600181600116156101000203166002900490600052602060002090601f016020900481019282601f106110bd57805160ff19168380011785556110eb565b828001600101855582156110eb579182015b828111156110ea5782518255916020019190600101906110cf565b5b5090506110f891906111b1565b5090565b6040518060e00160405280600073ffffffffffffffffffffffffffffffffffffffff16815260200160608152602001606081526020016060815260200160608152602001600073ffffffffffffffffffffffffffffffffffffffff168152602001606081525090565b6040518060c00160405280600073ffffffffffffffffffffffffffffffffffffffff16815260200160608152602001606081526020016000815260200160008152602001600081525090565b6111d391905b808211156111cf5760008160009055506001016111b7565b5090565b90565b6000813590506111e5816119ce565b92915050565b600082601f8301126111fc57600080fd5b813561120f61120a82611860565b611833565b9150808252602083016020830185838301111561122b57600080fd5b611236838284611940565b50505092915050565b60008135905061124e816119e5565b92915050565b60006020828403121561126657600080fd5b6000611274848285016111d6565b91505092915050565b60008060008060008060c0878903121561129657600080fd5b60006112a489828a016111d6565b965050602087013567ffffffffffffffff8111156112c157600080fd5b6112cd89828a016111eb565b955050604087013567ffffffffffffffff8111156112ea57600080fd5b6112f689828a016111eb565b945050606087013567ffffffffffffffff81111561131357600080fd5b61131f89828a016111eb565b935050608087013567ffffffffffffffff81111561133c57600080fd5b61134889828a016111eb565b92505060a087013567ffffffffffffffff81111561136557600080fd5b61137189828a016111eb565b9150509295509295509295565b600080600080600060a0868803121561139657600080fd5b60006113a4888289016111d6565b95505060206113b58882890161123f565b945050604086013567ffffffffffffffff8111156113d257600080fd5b6113de888289016111eb565b935050606086013567ffffffffffffffff8111156113fb57600080fd5b611407888289016111eb565b925050608086013567ffffffffffffffff81111561142457600080fd5b611430888289016111eb565b9150509295509295909350565b600080600080600060a0868803121561145557600080fd5b600086013567ffffffffffffffff81111561146f57600080fd5b61147b888289016111eb565b955050602086013567ffffffffffffffff81111561149857600080fd5b6114a4888289016111eb565b94505060406114b58882890161123f565b93505060606114c68882890161123f565b92505060806114d78882890161123f565b9150509295509295909350565b60006114f0838361169b565b905092915050565b61150961150482611904565b611982565b82525050565b611518816118f2565b82525050565b611527816118f2565b82525050565b60006115388261189c565b61154281856118bf565b9350836020820285016115548561188c565b8060005b85811015611590578484038952815161157185826114e4565b945061157c836118b2565b925060208a01995050600181019050611558565b50829750879550505050505092915050565b60006115ad826118a7565b6115b781856118d0565b93506115c781856020860161194f565b6115d0816119b0565b840191505092915050565b60006115e86019836118e1565b91507f4f6c697665206974656d20646f6573206e6f74206578697374000000000000006000830152602082019050919050565b6000611628600d836118e1565b91507f6e6f7420486172766573746564000000000000000000000000000000000000006000830152602082019050919050565b6000611668600b836118e1565b91507f6e6f7420506c616e7465640000000000000000000000000000000000000000006000830152602082019050919050565b600060e0830160008301516116b3600086018261150f565b50602083015184820360208601526116cb82826115a2565b915050604083015184820360408601526116e582826115a2565b915050606083015184820360608601526116ff82826115a2565b9150506080830151848203608086015261171982826115a2565b91505060a083015161172e60a086018261150f565b5060c083015184820360c086015261174682826115a2565b9150508091505092915050565b61176461175f82611936565b6119a6565b82525050565b600061177682856114f8565b6014820191506117868284611753565b6020820191508190509392505050565b60006020820190506117ab600083018461151e565b92915050565b600060208201905081810360008301526117cb818461152d565b905092915050565b600060208201905081810360008301526117ec816115db565b9050919050565b6000602082019050818103600083015261180c8161161b565b9050919050565b6000602082019050818103600083015261182c8161165b565b9050919050565b6000604051905081810181811067ffffffffffffffff8211171561185657600080fd5b8060405250919050565b600067ffffffffffffffff82111561187757600080fd5b601f19601f8301169050602081019050919050565b6000819050602082019050919050565b600081519050919050565b600081519050919050565b6000602082019050919050565b600082825260208201905092915050565b600082825260208201905092915050565b600082825260208201905092915050565b60006118fd82611916565b9050919050565b600061190f82611916565b9050919050565b600073ffffffffffffffffffffffffffffffffffffffff82169050919050565b6000819050919050565b82818337600083830152505050565b60005b8381101561196d578082015181840152602081019050611952565b8381111561197c576000848401525b50505050565b600061198d82611994565b9050919050565b600061199f826119c1565b9050919050565b6000819050919050565b6000601f19601f8301169050919050565b60008160601b9050919050565b6119d7816118f2565b81146119e257600080fd5b50565b6119ee81611936565b81146119f957600080fd5b5056fea365627a7a7231582054184ac377583daaab1e69cb3f062e5b213c5c4d83e518126cbf6ac4fed6c0a26c6578706572696d656e74616cf564736f6c63430005100040",
  "source": "// SPDX-License-Identifier: MIT\r\n\r\npragma solidity  >=0.4.22;\r\n\r\npragma experimental ABIEncoderV2;\r\n\r\n// Define a contract 'Supplychain'\r\ncontract SupplyChain\r\n   \r\n{\r\n    \r\n    // olive_upc -> oliveItem\r\n    mapping(address => LandPlot) landPlots;\r\n\r\n    // olive_upc -> oliveItem\r\n    mapping(address => OliveItem) oliveItems;\r\n   \r\n    // oil_upc -> olive_upc[]\r\n    mapping(uint256 => uint256[]) oilolives;\r\n\r\n    // olive_upc -> certificationItem[]\r\n    mapping(address => CertificationItem[]) oliveCertifications;\r\n\r\n    // Define enum 'State' with the following values:\r\n    enum OliveState {\r\n        Planted,\r\n        Harvested,\r\n        produced,\r\n        Audited,\r\n        Processed\r\n    }\r\n    OliveState constant defaultOliveState = OliveState.Planted;\r\n\r\n    // Define a struct 'oliveItem' with the following fields:\r\n    struct LandPlot {\r\n        address id_land;\r\n        string geo_loc;\r\n        string sail_typ; \r\n        uint alt; \r\n        uint nb_tree; \r\n        uint id_farmer;\r\n    }\r\n    // Define a struct 'oliveItem' with the following fields:\r\n    struct OliveItem {\r\n        address oliveID;\r\n        address ownerID; // Metamask-Ethereum address of the current owner as the product moves through stages\r\n        uint landID; // Metamask-Ethereum address of the Farmer\r\n        string numberTree; // number Tree\r\n        string oliveVariety; // olive Variety\r\n        string plantingDate; // planting Date\r\n        OliveState itemState; // Product State as represented in the enum above\r\n    }\r\nstruct CertificationItem {\r\n        address certID; // Metamask-Ethereum address of the certification item\r\n        string certName; // name of the certification\r\n        string certAgency; // certification agency\r\n        string certDate; // certification date\r\n        string certValidUntil; // certification validity period\r\n        address oliveID; // Metamask-Ethereum address of the olive item being certified\r\n        string ipfsUrl;\r\n    }\r\n  \r\n\r\n    // Define events of olives\r\n    event LandCreated(address _idLand);\r\n    event OlivePlanted(address _oliveID);\r\n    event OliveHarvested(address _oliveID);\r\n    event OliveProduced(address _oliveID);\r\n\r\n   \r\n\r\n    \r\n    // Define a modifier that checks if an oliveItem.state of a upc is Planted\r\n    modifier isPlanted(address _oliveID) {\r\n        require(\r\n            oliveItems[_oliveID].itemState == OliveState.Planted,\r\n            \"not Planted\"\r\n        );\r\n        _;\r\n    }\r\n\r\n    // Define a modifier that checks if an oliveItem.state of a upc is Harvested\r\n    modifier isHarvested(address _oliveID) {\r\n        require(\r\n            oliveItems[_oliveID].itemState == OliveState.Harvested,\r\n            \"not Harvested\"\r\n        );\r\n        _;\r\n    }\r\n\r\n   \r\n\r\n \r\n\r\n    function addLand( \r\n        string memory _geoLoc,\r\n        string memory _sailTyp,\r\n        uint256 _alt,\r\n        uint256 _nbTree,\r\n        uint _originFarmerID\r\n    ) public {\r\n        address _LandID = address(uint160(uint(keccak256(abi.encodePacked(msg.sender, block.number))))); // generate a new unique Ethereum address\r\n        // Add the new item as part of Harvest\r\n        LandPlot memory newLandPlot = LandPlot({\r\n            id_land : _LandID,\r\n            geo_loc : _geoLoc,\r\n            sail_typ : _sailTyp,\r\n            alt : _alt,\r\n            nb_tree : _nbTree,\r\n            id_farmer : _originFarmerID\r\n            });\r\n\r\n        landPlots[_LandID] = newLandPlot;\r\n        \r\n    \r\n        // Emit the appropriate event\r\n        emit LandCreated(_LandID);\r\n    }\r\n    // Transfer Eth to owner and terminate contract\r\n   \r\n    // Define a function 'olivePlantItem' that allows a farmer to mark an item 'Planted'\r\n    function olivePlantItem(\r\n        address ownerID,\r\n        uint landID, \r\n        string memory numberTree,\r\n        string memory oliveVariety,\r\n        string memory plantingDate\r\n\r\n        \r\n    ) public {\r\n        address _oliveID = address(uint160(uint(keccak256(abi.encodePacked(msg.sender, block.number))))); // generate a new unique Ethereum address\r\n\r\n        OliveItem memory newOliveItem = OliveItem({\r\n            oliveID:_oliveID,\r\n            ownerID : ownerID,\r\n            landID : landID,\r\n            numberTree : numberTree,\r\n            oliveVariety :oliveVariety,\r\n            plantingDate : plantingDate,\r\n            itemState : OliveState.Planted\r\n            });\r\n\r\n        oliveItems[_oliveID] = newOliveItem;\r\n        \r\n        emit OlivePlanted(_oliveID);\r\n    }\r\n\r\n    // Define a function 'oliveHarvestItem' that allows a farmer to mark an item 'Harvested'\r\n    function oliveHarvestItem(\r\n        address _oliveID\r\n\r\n    ) public  isPlanted(_oliveID) {\r\n        // Add the new item as part of Harvest\r\n        oliveItems[_oliveID].ownerID = msg.sender;\r\n        \r\n        // Update state\r\n        oliveItems[_oliveID].itemState = OliveState.Harvested;\r\n        // Emit the appropriate event\r\n        emit OliveHarvested(_oliveID);\r\n    }\r\n    function oliveProducetItem(\r\n        address _oliveID\r\n\r\n    ) public  isHarvested(_oliveID) {\r\n         // Add the new item as part of Harvest\r\n        oliveItems[_oliveID].ownerID = msg.sender;\r\n        \r\n        // Update state\r\n        oliveItems[_oliveID].itemState = OliveState.produced;\r\n        // Emit the appropriate event\r\n        emit OliveProduced(_oliveID);\r\n    }\r\n    function createCertification(\r\n        address _oliveID,\r\n        string memory _certName,\r\n        string memory _certAgency,\r\n        string memory _certDate,\r\n        string memory _certValidUntil,\r\n        string memory _ipfsURL\r\n    ) public {\r\n        // Verify that the caller is an authorized certifying body\r\n\r\n        \r\n        // Verify that the olive item being certified exists\r\n        require(oliveItems[_oliveID].ownerID != address(0), \"Olive item does not exist\");\r\n        \r\n        // Generate a new unique Ethereum address for the certification item\r\n        address _certID = address(uint160(uint(keccak256(abi.encodePacked(msg.sender, block.number))))); \r\n        \r\n        // Create the new certification item\r\n        CertificationItem memory newCertificationItem = CertificationItem({\r\n            certID : _certID,\r\n            certName : _certName,\r\n            certAgency : _certAgency,\r\n            certDate : _certDate,\r\n            certValidUntil : _certValidUntil,\r\n            oliveID : _oliveID,\r\n            ipfsUrl : _ipfsURL\r\n        });\r\n        \r\n        // Add the new certification item to the list of certifications for the olive item\r\n        oliveCertifications[_oliveID].push(newCertificationItem);\r\n    }\r\n     // Define a function 'getCertifications' that returns the list of certifications for a given olive item\r\n    function getCertifications(address _oliveID) public view returns (CertificationItem[] memory) {\r\n        return oliveCertifications[_oliveID];\r\n    }\r\n    \r\n\r\n}\r\n/*\r\npragma solidity pragma solidity >=0.4.22 <0.9.0;\r\n\r\n\r\ncontract Supplychain{\r\n\r\n    // Variable for Stock keeping Unit (SKU) named 'sku'\r\n//-------------------------------------------\r\n\r\n    //MAPPING:\r\n    // Olive_upc -> OliveItem\r\n    //Oil_upc -> OilItem\r\n    //Oil_upc -> olive_upc[]\r\n//-------------------------------------------\r\n\r\n    //Olive States{planted, harvested, audited, processed}\r\n    \r\n    // Oil States{Created,Blended,Produced,Certified,Packed,ForSale,Purchased}\r\n    //Etat par defaut: Created\r\n//-------------------------------------------\r\n\r\n    //struct Olive Item\r\n    //struct Oil Item\r\n//-------------------------------------------\r\n    // for each enum create an event:\r\n\r\n    // event OlivePlanted\r\n    // event OliveHarvested\r\n    // event OliveAudited\r\n    // event OliveProcessed\r\n    \r\n    //event OilCreated\r\n    //event OilBlended\r\n    //event OilProduced\r\n    //event OilPacked\r\n    //event OilCertified\r\n    //event OilForSale\r\n    //event OilPurshased\r\n\r\n//-------------------------------------------\r\n\r\n    // modifiers:\r\n\r\n    //modifer that verifies the Caller\r\n    //modifier that checks if the paid amount is sufficient to cover the price\r\n    // modifier that checks the price and refunds the remaining balance\r\n    // modifier that checks if an OliveItem.state of a upc is Planted\r\n    // modifier that checks if an OliveItem.state of a upc is Harvested\r\n    // modifier that checks if an OliveItem.state of a upc is Audited\r\n    // modifier that checks if an OliveItem.state of a upc is Processed\r\n    // modifier that checks if an OilItem.state of a upc is Created\r\n    // modifier that checks if an OilItem.state of a upc is Blended\r\n    // modifier that checks if an OilItem.state of a upc is Produced\r\n    // modifier that checks if an OilItem.state of a upc is Packed\r\n    // modifier that checks if an OilItem.state of a upc is Certified\r\n    // modifier that checks if an OilItem.state of a upc is ForSale\r\n    // modifier that checks if an OilItem.state of a upc is Purchased\r\n//-------------------------------------------\r\n    //Constructor to initiate the value of sku to 1\r\n//-------------------------------------------\r\n\r\n\r\n    // function 'OlivePlantItem' that allows a farmer to mark an item 'Planted'\r\n    // function 'grapeHarvestItem' that allows a farmer to mark an item 'Harvested'\r\n    // function 'grapeAuditItem' that allows a Inspector to mark an item 'Audited'\r\n    // function 'grapeProcessItem' that allows a farmer to mark an item 'Processed'\r\n    // function OilCreateItem()\r\n    // function OilBlendItem()\r\n    // function OilProduceItem()\r\n    // function OilCertifyItem()\r\n    // function OilPackItem()\r\n    // function OilSellItem()\r\n    // function OilBuyItem\r\n    // Functions to fetch data:\r\n        // fetchOilItem\r\n        // fetchOliveItem\r\n        // fetchOliveState\r\n}\r\n*/\r\n",
  "sourcePath": "D:\\securite-books\\olive1\\newTest\\pfa\\contracts\\Supplychain.sol",
  "compiler": {
    "name": "solc",
    "version": "0.5.16+commit.9c3226ce.Emscripten.clang"
  },
  "schemaVersion": "3.4.13",
  "updatedAt": "2023-05-01T14:48:24.416Z",
  "networkType": "ethereum",
  "devdoc": {
    "methods": {}
  },
  "userdoc": {
    "methods": {}
  }
}