{
  "contractName": "Farmer",
  "abi": [
    {
      "constant": true,
      "inputs": [
        {
          "internalType": "uint256",
          "name": "",
          "type": "uint256"
        }
      ],
      "name": "farms",
      "outputs": [
        {
          "internalType": "string",
          "name": "geo_loc",
          "type": "string"
        },
        {
          "internalType": "string",
          "name": "sail_typ",
          "type": "string"
        },
        {
          "internalType": "uint256",
          "name": "nb_tree",
          "type": "uint256"
        },
        {
          "internalType": "uint256",
          "name": "id_farmer",
          "type": "uint256"
        }
      ],
      "payable": false,
      "stateMutability": "view",
      "type": "function"
    },
    {
      "constant": false,
      "inputs": [
        {
          "internalType": "string",
          "name": "_geo_loc",
          "type": "string"
        },
        {
          "internalType": "string",
          "name": "_sail_typ",
          "type": "string"
        },
        {
          "internalType": "uint256",
          "name": "_nb_tree",
          "type": "uint256"
        },
        {
          "internalType": "uint256",
          "name": "_id_farmer",
          "type": "uint256"
        }
      ],
      "name": "addFarm",
      "outputs": [],
      "payable": false,
      "stateMutability": "nonpayable",
      "type": "function"
    },
    {
      "constant": true,
      "inputs": [
        {
          "internalType": "uint256",
          "name": "index",
          "type": "uint256"
        }
      ],
      "name": "getFarm",
      "outputs": [
        {
          "internalType": "string",
          "name": "",
          "type": "string"
        },
        {
          "internalType": "string",
          "name": "",
          "type": "string"
        },
        {
          "internalType": "uint256",
          "name": "",
          "type": "uint256"
        },
        {
          "internalType": "uint256",
          "name": "",
          "type": "uint256"
        }
      ],
      "payable": false,
      "stateMutability": "view",
      "type": "function"
    },
    {
      "constant": true,
      "inputs": [],
      "name": "getFarmCount",
      "outputs": [
        {
          "internalType": "uint256",
          "name": "",
          "type": "uint256"
        }
      ],
      "payable": false,
      "stateMutability": "view",
      "type": "function"
    }
  ],
  "bytecode": "0x608060405234801561001057600080fd5b5061090a806100206000396000f3fe608060405234801561001057600080fd5b506004361061004c5760003560e01c8063429692a71461005157806353fd88bf1461006f5780637c55ed1c146101905780637da470ea146102f6575b600080fd5b610059610417565b6040518082815260200191505060405180910390f35b61009b6004803603602081101561008557600080fd5b8101908080359060200190929190505050610423565b604051808060200180602001858152602001848152602001838103835287818151815260200191508051906020019080838360005b838110156100eb5780820151818401526020810190506100d0565b50505050905090810190601f1680156101185780820380516001836020036101000a031916815260200191505b50838103825286818151815260200191508051906020019080838360005b83811015610151578082015181840152602081019050610136565b50505050905090810190601f16801561017e5780820380516001836020036101000a031916815260200191505b50965050505050505060405180910390f35b6102f4600480360360808110156101a657600080fd5b81019080803590602001906401000000008111156101c357600080fd5b8201836020820111156101d557600080fd5b803590602001918460018302840111640100000000831117156101f757600080fd5b91908080601f016020809104026020016040519081016040528093929190818152602001838380828437600081840152601f19601f8201169050808301925050505050505091929192908035906020019064010000000081111561025a57600080fd5b82018360208201111561026c57600080fd5b8035906020019184600183028401116401000000008311171561028e57600080fd5b91908080601f016020809104026020016040519081016040528093929190818152602001838380828437600081840152601f19601f82011690508083019250505050505050919291929080359060200190929190803590602001909291905050506105ea565b005b6103226004803603602081101561030c57600080fd5b810190808035906020019092919050505061069b565b604051808060200180602001858152602001848152602001838103835287818151815260200191508051906020019080838360005b83811015610372578082015181840152602081019050610357565b50505050905090810190601f16801561039f5780820380516001836020036101000a031916815260200191505b50838103825286818151815260200191508051906020019080838360005b838110156103d85780820151818401526020810190506103bd565b50505050905090810190601f1680156104055780820380516001836020036101000a031916815260200191505b50965050505050505060405180910390f35b60008080549050905090565b6060806000806000858154811061043657fe5b90600052602060002090600402016000016000868154811061045457fe5b90600052602060002090600402016001016000878154811061047257fe5b9060005260206000209060040201600201546000888154811061049157fe5b906000526020600020906004020160030154838054600181600116156101000203166002900480601f0160208091040260200160405190810160405280929190818152602001828054600181600116156101000203166002900480156105385780601f1061050d57610100808354040283529160200191610538565b820191906000526020600020905b81548152906001019060200180831161051b57829003601f168201915b50505050509350828054600181600116156101000203166002900480601f0160208091040260200160405190810160405280929190818152602001828054600181600116156101000203166002900480156105d45780601f106105a9576101008083540402835291602001916105d4565b820191906000526020600020905b8154815290600101906020018083116105b757829003601f168201915b5050505050925093509350935093509193509193565b6105f2610808565b604051806080016040528086815260200185815260200184815260200183815250905060008190806001815401808255809150509060018203906000526020600020906004020160009091929091909150600082015181600001908051906020019061065f929190610830565b50602082015181600101908051906020019061067c929190610830565b5060408201518160020155606082015181600301555050505050505050565b600081815481106106a857fe5b9060005260206000209060040201600091509050806000018054600181600116156101000203166002900480601f0160208091040260200160405190810160405280929190818152602001828054600181600116156101000203166002900480156107545780601f1061072957610100808354040283529160200191610754565b820191906000526020600020905b81548152906001019060200180831161073757829003601f168201915b505050505090806001018054600181600116156101000203166002900480601f0160208091040260200160405190810160405280929190818152602001828054600181600116156101000203166002900480156107f25780601f106107c7576101008083540402835291602001916107f2565b820191906000526020600020905b8154815290600101906020018083116107d557829003601f168201915b5050505050908060020154908060030154905084565b6040518060800160405280606081526020016060815260200160008152602001600081525090565b828054600181600116156101000203166002900490600052602060002090601f016020900481019282601f1061087157805160ff191683800117855561089f565b8280016001018555821561089f579182015b8281111561089e578251825591602001919060010190610883565b5b5090506108ac91906108b0565b5090565b6108d291905b808211156108ce5760008160009055506001016108b6565b5090565b9056fea265627a7a72315820cb9a8b04db2ef10a5f19efda392226c01998fe9b7ee519c706378c4d9f0ff14e64736f6c63430005100032",
  "source": "// SPDX-License-Identifier: MIT\r\npragma solidity  >=0.4.22;\r\n\r\ncontract Farmer {\r\n    \r\n    struct Farm {\r\n        string geo_loc;   // geographical location of the farm\r\n        string sail_typ;  // type of crop or produce grown on the farm\r\n        uint nb_tree;     // number of trees on the farm\r\n        uint id_farmer;   // unique identifier of the farmer who owns the farm\r\n    }\r\n    \r\n    Farm[] public farms;   // array to store all farms\r\n    \r\n    function addFarm(string memory _geo_loc, string memory _sail_typ, uint _nb_tree, uint _id_farmer) public {\r\n        Farm memory newFarm = Farm(_geo_loc, _sail_typ, _nb_tree, _id_farmer);\r\n        farms.push(newFarm);\r\n    }\r\n    \r\n    function getFarm(uint index) public view returns (string memory, string memory, uint, uint) {\r\n        return (farms[index].geo_loc, farms[index].sail_typ, farms[index].nb_tree, farms[index].id_farmer);\r\n    }\r\n    \r\n    function getFarmCount() public view returns (uint) {\r\n        return farms.length;\r\n    }\r\n    \r\n}",
  "sourcePath": "D:\\securite-books\\olive1\\newTest\\pfa\\contracts\\Farmer.sol",
  "compiler": {
    "name": "solc",
    "version": "0.5.16+commit.9c3226ce.Emscripten.clang"
  },
  "schemaVersion": "3.4.13",
  "updatedAt": "2023-04-22T12:21:07.432Z",
  "devdoc": {
    "methods": {}
  },
  "userdoc": {
    "methods": {}
  }
}