{
  "contractName": "SupplyChain",
  "abi": [
    {
      "anonymous": false,
      "inputs": [
        {
          "indexed": false,
          "internalType": "address",
          "name": "_idLand",
          "type": "address"
        }
      ],
      "name": "LandCreated",
      "type": "event"
    },
    {
      "anonymous": false,
      "inputs": [
        {
          "indexed": true,
          "internalType": "address",
          "name": "_oliveID",
          "type": "address"
        },
        {
          "components": [
            {
              "internalType": "address",
              "name": "oliveID",
              "type": "address"
            },
            {
              "internalType": "address",
              "name": "ownerID",
              "type": "address"
            },
            {
              "internalType": "uint256",
              "name": "landID",
              "type": "uint256"
            },
            {
              "internalType": "string",
              "name": "numberTree",
              "type": "string"
            },
            {
              "internalType": "string",
              "name": "oliveVariety",
              "type": "string"
            },
            {
              "internalType": "string",
              "name": "plantingDate",
              "type": "string"
            },
            {
              "internalType": "string",
              "name": "harvStarDate",
              "type": "string"
            },
            {
              "internalType": "string",
              "name": "harvEndDate",
              "type": "string"
            },
            {
              "internalType": "string",
              "name": "harvMeth",
              "type": "string"
            },
            {
              "internalType": "string",
              "name": "storTemp",
              "type": "string"
            },
            {
              "internalType": "enum SupplyChain.OliveState",
              "name": "itemState",
              "type": "uint8"
            }
          ],
          "indexed": false,
          "internalType": "struct SupplyChain.OliveItem",
          "name": "_oliveitems",
          "type": "tuple"
        }
      ],
      "name": "OliveHarvested",
      "type": "event"
    },
    {
      "anonymous": false,
      "inputs": [
        {
          "indexed": false,
          "internalType": "address",
          "name": "_oliveID",
          "type": "address"
        },
        {
          "components": [
            {
              "internalType": "address",
              "name": "oliveID",
              "type": "address"
            },
            {
              "internalType": "address",
              "name": "ownerID",
              "type": "address"
            },
            {
              "internalType": "uint256",
              "name": "landID",
              "type": "uint256"
            },
            {
              "internalType": "string",
              "name": "numberTree",
              "type": "string"
            },
            {
              "internalType": "string",
              "name": "oliveVariety",
              "type": "string"
            },
            {
              "internalType": "string",
              "name": "plantingDate",
              "type": "string"
            },
            {
              "internalType": "string",
              "name": "harvStarDate",
              "type": "string"
            },
            {
              "internalType": "string",
              "name": "harvEndDate",
              "type": "string"
            },
            {
              "internalType": "string",
              "name": "harvMeth",
              "type": "string"
            },
            {
              "internalType": "string",
              "name": "storTemp",
              "type": "string"
            },
            {
              "internalType": "enum SupplyChain.OliveState",
              "name": "itemState",
              "type": "uint8"
            }
          ],
          "indexed": false,
          "internalType": "struct SupplyChain.OliveItem",
          "name": "_oliveitems1",
          "type": "tuple"
        }
      ],
      "name": "OlivePlanted",
      "type": "event"
    },
    {
      "anonymous": false,
      "inputs": [
        {
          "indexed": false,
          "internalType": "address",
          "name": "_oliveID",
          "type": "address"
        }
      ],
      "name": "OliveProduced",
      "type": "event"
    },
    {
      "constant": false,
      "inputs": [
        {
          "internalType": "string",
          "name": "_geoLoc",
          "type": "string"
        },
        {
          "internalType": "string",
          "name": "_sailTyp",
          "type": "string"
        },
        {
          "internalType": "uint256",
          "name": "_alt",
          "type": "uint256"
        },
        {
          "internalType": "uint256",
          "name": "_nbTree",
          "type": "uint256"
        },
        {
          "internalType": "uint256",
          "name": "_originFarmerID",
          "type": "uint256"
        }
      ],
      "name": "addLand",
      "outputs": [],
      "payable": false,
      "stateMutability": "nonpayable",
      "type": "function"
    },
    {
      "constant": false,
      "inputs": [
        {
          "internalType": "address",
          "name": "ownerID",
          "type": "address"
        },
        {
          "internalType": "uint256",
          "name": "landID",
          "type": "uint256"
        },
        {
          "internalType": "string",
          "name": "numberTree",
          "type": "string"
        },
        {
          "internalType": "string",
          "name": "oliveVariety",
          "type": "string"
        },
        {
          "internalType": "string",
          "name": "plantingDate",
          "type": "string"
        }
      ],
      "name": "olivePlantItem",
      "outputs": [],
      "payable": false,
      "stateMutability": "nonpayable",
      "type": "function"
    },
    {
      "constant": false,
      "inputs": [
        {
          "internalType": "address",
          "name": "_oliveID",
          "type": "address"
        },
        {
          "internalType": "string",
          "name": "sDate",
          "type": "string"
        },
        {
          "internalType": "string",
          "name": "eDate",
          "type": "string"
        },
        {
          "internalType": "string",
          "name": "metHar",
          "type": "string"
        },
        {
          "internalType": "string",
          "name": "stoTem",
          "type": "string"
        }
      ],
      "name": "oliveHarvestItem",
      "outputs": [],
      "payable": false,
      "stateMutability": "nonpayable",
      "type": "function"
    },
    {
      "constant": false,
      "inputs": [
        {
          "internalType": "address",
          "name": "_oliveID",
          "type": "address"
        }
      ],
      "name": "oliveProducetItem",
      "outputs": [],
      "payable": false,
      "stateMutability": "nonpayable",
      "type": "function"
    },
    {
      "constant": true,
      "inputs": [
        {
          "internalType": "address",
          "name": "_oliveID",
          "type": "address"
        }
      ],
      "name": "getHarvestedItem",
      "outputs": [
        {
          "components": [
            {
              "internalType": "address",
              "name": "oliveID",
              "type": "address"
            },
            {
              "internalType": "address",
              "name": "ownerID",
              "type": "address"
            },
            {
              "internalType": "uint256",
              "name": "landID",
              "type": "uint256"
            },
            {
              "internalType": "string",
              "name": "numberTree",
              "type": "string"
            },
            {
              "internalType": "string",
              "name": "oliveVariety",
              "type": "string"
            },
            {
              "internalType": "string",
              "name": "plantingDate",
              "type": "string"
            },
            {
              "internalType": "string",
              "name": "harvStarDate",
              "type": "string"
            },
            {
              "internalType": "string",
              "name": "harvEndDate",
              "type": "string"
            },
            {
              "internalType": "string",
              "name": "harvMeth",
              "type": "string"
            },
            {
              "internalType": "string",
              "name": "storTemp",
              "type": "string"
            },
            {
              "internalType": "enum SupplyChain.OliveState",
              "name": "itemState",
              "type": "uint8"
            }
          ],
          "internalType": "struct SupplyChain.OliveItem",
          "name": "",
          "type": "tuple"
        }
      ],
      "payable": false,
      "stateMutability": "view",
      "type": "function"
    },
    {
      "constant": false,
      "inputs": [
        {
          "internalType": "address",
          "name": "_oliveID",
          "type": "address"
        },
        {
          "internalType": "string",
          "name": "_certName",
          "type": "string"
        },
        {
          "internalType": "string",
          "name": "_certAgency",
          "type": "string"
        },
        {
          "internalType": "string",
          "name": "_certDate",
          "type": "string"
        },
        {
          "internalType": "string",
          "name": "_certValidUntil",
          "type": "string"
        },
        {
          "internalType": "string",
          "name": "_ipfsURL",
          "type": "string"
        }
      ],
      "name": "createCertification",
      "outputs": [],
      "payable": false,
      "stateMutability": "nonpayable",
      "type": "function"
    },
    {
      "constant": true,
      "inputs": [
        {
          "internalType": "address",
          "name": "_oliveID",
          "type": "address"
        }
      ],
      "name": "getCertifications",
      "outputs": [
        {
          "components": [
            {
              "internalType": "address",
              "name": "certID",
              "type": "address"
            },
            {
              "internalType": "string",
              "name": "certName",
              "type": "string"
            },
            {
              "internalType": "string",
              "name": "certAgency",
              "type": "string"
            },
            {
              "internalType": "string",
              "name": "certDate",
              "type": "string"
            },
            {
              "internalType": "string",
              "name": "certValidUntil",
              "type": "string"
            },
            {
              "internalType": "address",
              "name": "oliveID",
              "type": "address"
            },
            {
              "internalType": "string",
              "name": "ipfsUrl",
              "type": "string"
            }
          ],
          "internalType": "struct SupplyChain.CertificationItem[]",
          "name": "",
          "type": "tuple[]"
        }
      ],
      "payable": false,
      "stateMutability": "view",
      "type": "function"
    }
  ],
  "bytecode": "0x608060405234801561001057600080fd5b5061287c806100206000396000f3fe608060405234801561001057600080fd5b506004361061007d5760003560e01c80639e35f7c01161005b5780639e35f7c0146100ea578063b6ccc0e514610106578063d35c4d0514610136578063dad252d5146101525761007d565b806320c65ca614610082578063677cc2911461009e578063758ed17e146100ce575b600080fd5b61009c60048036036100979190810190611d6b565b61016e565b005b6100b860048036036100b39190810190611b6a565b61047c565b6040516100c591906124d1565b60405180910390f35b6100e860048036036100e39190810190611c6a565b6108f0565b005b61010460048036036100ff9190810190611b6a565b610bf2565b005b610120600480360361011b9190810190611b6a565b610dbb565b60405161012d9190612553565b60405180910390f35b610150600480360361014b9190810190611b93565b611366565b005b61016c60048036036101679190810190611e2a565b6116e3565b005b6000334360405160200161018392919061245a565b6040516020818303038152906040528051906020012060001c90506101a6611881565b6040518061016001604052808373ffffffffffffffffffffffffffffffffffffffff1681526020018873ffffffffffffffffffffffffffffffffffffffff1681526020018781526020018681526020018581526020018481526020016040518060200160405280600081525081526020016040518060200160405280600081525081526020016040518060200160405280600081525081526020016040518060200160405280600081525081526020016000600481111561026357fe5b815250905080600160008473ffffffffffffffffffffffffffffffffffffffff1673ffffffffffffffffffffffffffffffffffffffff16815260200190815260200160002060008201518160000160006101000a81548173ffffffffffffffffffffffffffffffffffffffff021916908373ffffffffffffffffffffffffffffffffffffffff16021790555060208201518160010160006101000a81548173ffffffffffffffffffffffffffffffffffffffff021916908373ffffffffffffffffffffffffffffffffffffffff16021790555060408201518160020155606082015181600301908051906020019061035c929190611912565b506080820151816004019080519060200190610379929190611912565b5060a0820151816005019080519060200190610396929190611912565b5060c08201518160060190805190602001906103b3929190611912565b5060e08201518160070190805190602001906103d0929190611912565b506101008201518160080190805190602001906103ee929190611912565b5061012082015181600901908051906020019061040c929190611912565b5061014082015181600a0160006101000a81548160ff0219169083600481111561043257fe5b02179055509050507f0a4853df2f0a3b0b109a43ec94c20bb7af50435a18418febf8622e6649587736828260405161046b9291906124a1565b60405180910390a150505050505050565b6060600360008373ffffffffffffffffffffffffffffffffffffffff1673ffffffffffffffffffffffffffffffffffffffff168152602001908152602001600020805480602002602001604051908101604052809291908181526020016000905b828210156108e557838290600052602060002090600702016040518060e00160405290816000820160009054906101000a900473ffffffffffffffffffffffffffffffffffffffff1673ffffffffffffffffffffffffffffffffffffffff1673ffffffffffffffffffffffffffffffffffffffff168152602001600182018054600181600116156101000203166002900480601f0160208091040260200160405190810160405280929190818152602001828054600181600116156101000203166002900480156105ef5780601f106105c4576101008083540402835291602001916105ef565b820191906000526020600020905b8154815290600101906020018083116105d257829003601f168201915b50505050508152602001600282018054600181600116156101000203166002900480601f0160208091040260200160405190810160405280929190818152602001828054600181600116156101000203166002900480156106915780601f1061066657610100808354040283529160200191610691565b820191906000526020600020905b81548152906001019060200180831161067457829003601f168201915b50505050508152602001600382018054600181600116156101000203166002900480601f0160208091040260200160405190810160405280929190818152602001828054600181600116156101000203166002900480156107335780601f1061070857610100808354040283529160200191610733565b820191906000526020600020905b81548152906001019060200180831161071657829003601f168201915b50505050508152602001600482018054600181600116156101000203166002900480601f0160208091040260200160405190810160405280929190818152602001828054600181600116156101000203166002900480156107d55780601f106107aa576101008083540402835291602001916107d5565b820191906000526020600020905b8154815290600101906020018083116107b857829003601f168201915b505050505081526020016005820160009054906101000a900473ffffffffffffffffffffffffffffffffffffffff1673ffffffffffffffffffffffffffffffffffffffff1673ffffffffffffffffffffffffffffffffffffffff168152602001600682018054600181600116156101000203166002900480601f0160208091040260200160405190810160405280929190818152602001828054600181600116156101000203166002900480156108cd5780601f106108a2576101008083540402835291602001916108cd565b820191906000526020600020905b8154815290600101906020018083116108b057829003601f168201915b505050505081525050815260200190600101906104dd565b505050509050919050565b600073ffffffffffffffffffffffffffffffffffffffff16600160008873ffffffffffffffffffffffffffffffffffffffff1673ffffffffffffffffffffffffffffffffffffffff16815260200190815260200160002060010160009054906101000a900473ffffffffffffffffffffffffffffffffffffffff1673ffffffffffffffffffffffffffffffffffffffff1614156109c2576040517f08c379a00000000000000000000000000000000000000000000000000000000081526004016109b9906124f3565b60405180910390fd5b600033436040516020016109d792919061245a565b6040516020818303038152906040528051906020012060001c90506109fa611992565b6040518060e001604052808373ffffffffffffffffffffffffffffffffffffffff1681526020018881526020018781526020018681526020018581526020018973ffffffffffffffffffffffffffffffffffffffff168152602001848152509050600360008973ffffffffffffffffffffffffffffffffffffffff1673ffffffffffffffffffffffffffffffffffffffff168152602001908152602001600020819080600181540180825580915050906001820390600052602060002090600702016000909192909190915060008201518160000160006101000a81548173ffffffffffffffffffffffffffffffffffffffff021916908373ffffffffffffffffffffffffffffffffffffffff1602179055506020820151816001019080519060200190610b29929190611912565b506040820151816002019080519060200190610b46929190611912565b506060820151816003019080519060200190610b63929190611912565b506080820151816004019080519060200190610b80929190611912565b5060a08201518160050160006101000a81548173ffffffffffffffffffffffffffffffffffffffff021916908373ffffffffffffffffffffffffffffffffffffffff16021790555060c0820151816006019080519060200190610be4929190611912565b505050505050505050505050565b8060016004811115610c0057fe5b600160008373ffffffffffffffffffffffffffffffffffffffff1673ffffffffffffffffffffffffffffffffffffffff168152602001908152602001600020600a0160009054906101000a900460ff166004811115610c5b57fe5b14610c9b576040517f08c379a0000000000000000000000000000000000000000000000000000000008152600401610c9290612513565b60405180910390fd5b33600160008473ffffffffffffffffffffffffffffffffffffffff1673ffffffffffffffffffffffffffffffffffffffff16815260200190815260200160002060010160006101000a81548173ffffffffffffffffffffffffffffffffffffffff021916908373ffffffffffffffffffffffffffffffffffffffff1602179055506002600160008473ffffffffffffffffffffffffffffffffffffffff1673ffffffffffffffffffffffffffffffffffffffff168152602001908152602001600020600a0160006101000a81548160ff02191690836004811115610d7b57fe5b02179055507f40d48790f66b749a98451777ddcb02fcc5d9de62421fa16a27df78034acdfc2082604051610daf9190612486565b60405180910390a15050565b610dc3611881565b600160008373ffffffffffffffffffffffffffffffffffffffff1673ffffffffffffffffffffffffffffffffffffffff168152602001908152602001600020604051806101600160405290816000820160009054906101000a900473ffffffffffffffffffffffffffffffffffffffff1673ffffffffffffffffffffffffffffffffffffffff1673ffffffffffffffffffffffffffffffffffffffff1681526020016001820160009054906101000a900473ffffffffffffffffffffffffffffffffffffffff1673ffffffffffffffffffffffffffffffffffffffff1673ffffffffffffffffffffffffffffffffffffffff16815260200160028201548152602001600382018054600181600116156101000203166002900480601f016020809104026020016040519081016040528092919081815260200182805460018160011615610100020316600290048015610f5d5780601f10610f3257610100808354040283529160200191610f5d565b820191906000526020600020905b815481529060010190602001808311610f4057829003601f168201915b50505050508152602001600482018054600181600116156101000203166002900480601f016020809104026020016040519081016040528092919081815260200182805460018160011615610100020316600290048015610fff5780601f10610fd457610100808354040283529160200191610fff565b820191906000526020600020905b815481529060010190602001808311610fe257829003601f168201915b50505050508152602001600582018054600181600116156101000203166002900480601f0160208091040260200160405190810160405280929190818152602001828054600181600116156101000203166002900480156110a15780601f10611076576101008083540402835291602001916110a1565b820191906000526020600020905b81548152906001019060200180831161108457829003601f168201915b50505050508152602001600682018054600181600116156101000203166002900480601f0160208091040260200160405190810160405280929190818152602001828054600181600116156101000203166002900480156111435780601f1061111857610100808354040283529160200191611143565b820191906000526020600020905b81548152906001019060200180831161112657829003601f168201915b50505050508152602001600782018054600181600116156101000203166002900480601f0160208091040260200160405190810160405280929190818152602001828054600181600116156101000203166002900480156111e55780601f106111ba576101008083540402835291602001916111e5565b820191906000526020600020905b8154815290600101906020018083116111c857829003601f168201915b50505050508152602001600882018054600181600116156101000203166002900480601f0160208091040260200160405190810160405280929190818152602001828054600181600116156101000203166002900480156112875780601f1061125c57610100808354040283529160200191611287565b820191906000526020600020905b81548152906001019060200180831161126a57829003601f168201915b50505050508152602001600982018054600181600116156101000203166002900480601f0160208091040260200160405190810160405280929190818152602001828054600181600116156101000203166002900480156113295780601f106112fe57610100808354040283529160200191611329565b820191906000526020600020905b81548152906001019060200180831161130c57829003601f168201915b50505050508152602001600a820160009054906101000a900460ff16600481111561135057fe5b600481111561135b57fe5b815250509050919050565b846000600481111561137457fe5b600160008373ffffffffffffffffffffffffffffffffffffffff1673ffffffffffffffffffffffffffffffffffffffff168152602001908152602001600020600a0160009054906101000a900460ff1660048111156113cf57fe5b1461140f576040517f08c379a000000000000000000000000000000000000000000000000000000000815260040161140690612533565b60405180910390fd5b33600160008873ffffffffffffffffffffffffffffffffffffffff1673ffffffffffffffffffffffffffffffffffffffff16815260200190815260200160002060010160006101000a81548173ffffffffffffffffffffffffffffffffffffffff021916908373ffffffffffffffffffffffffffffffffffffffff16021790555084600160008873ffffffffffffffffffffffffffffffffffffffff1673ffffffffffffffffffffffffffffffffffffffff16815260200190815260200160002060060190805190602001906114e69291906119fb565b5083600160008873ffffffffffffffffffffffffffffffffffffffff1673ffffffffffffffffffffffffffffffffffffffff168152602001908152602001600020600701908051906020019061153d9291906119fb565b5082600160008873ffffffffffffffffffffffffffffffffffffffff1673ffffffffffffffffffffffffffffffffffffffff16815260200190815260200160002060080190805190602001906115949291906119fb565b5081600160008873ffffffffffffffffffffffffffffffffffffffff1673ffffffffffffffffffffffffffffffffffffffff16815260200190815260200160002060090190805190602001906115eb9291906119fb565b5060018060008873ffffffffffffffffffffffffffffffffffffffff1673ffffffffffffffffffffffffffffffffffffffff168152602001908152602001600020600a0160006101000a81548160ff0219169083600481111561164a57fe5b02179055508573ffffffffffffffffffffffffffffffffffffffff167ff981b574144f4e87a556a68d9e45815c345a443e57fee6c7ab30409a93452c60600160008973ffffffffffffffffffffffffffffffffffffffff1673ffffffffffffffffffffffffffffffffffffffff1681526020019081526020016000206040516116d39190612575565b60405180910390a2505050505050565b600033436040516020016116f892919061245a565b6040516020818303038152906040528051906020012060001c905061171b611a7b565b6040518060c001604052808373ffffffffffffffffffffffffffffffffffffffff168152602001888152602001878152602001868152602001858152602001848152509050806000808473ffffffffffffffffffffffffffffffffffffffff1673ffffffffffffffffffffffffffffffffffffffff16815260200190815260200160002060008201518160000160006101000a81548173ffffffffffffffffffffffffffffffffffffffff021916908373ffffffffffffffffffffffffffffffffffffffff1602179055506020820151816001019080519060200190611802929190611912565b50604082015181600201908051906020019061181f929190611912565b50606082015181600301556080820151816004015560a082015181600501559050507f633a583eca39761ad94371f5e5b21177609345bcd86c0921495021e3604fe18b826040516118709190612486565b60405180910390a150505050505050565b604051806101600160405280600073ffffffffffffffffffffffffffffffffffffffff168152602001600073ffffffffffffffffffffffffffffffffffffffff16815260200160008152602001606081526020016060815260200160608152602001606081526020016060815260200160608152602001606081526020016000600481111561190c57fe5b81525090565b828054600181600116156101000203166002900490600052602060002090601f016020900481019282601f1061195357805160ff1916838001178555611981565b82800160010185558215611981579182015b82811115611980578251825591602001919060010190611965565b5b50905061198e9190611ac7565b5090565b6040518060e00160405280600073ffffffffffffffffffffffffffffffffffffffff16815260200160608152602001606081526020016060815260200160608152602001600073ffffffffffffffffffffffffffffffffffffffff168152602001606081525090565b828054600181600116156101000203166002900490600052602060002090601f016020900481019282601f10611a3c57805160ff1916838001178555611a6a565b82800160010185558215611a6a579182015b82811115611a69578251825591602001919060010190611a4e565b5b509050611a779190611ac7565b5090565b6040518060c00160405280600073ffffffffffffffffffffffffffffffffffffffff16815260200160608152602001606081526020016000815260200160008152602001600081525090565b611ae991905b80821115611ae5576000816000905550600101611acd565b5090565b90565b600081359050611afb8161280b565b92915050565b600082601f830112611b1257600080fd5b8135611b25611b20826125c4565b612597565b91508082526020830160208301858383011115611b4157600080fd5b611b4c838284612715565b50505092915050565b600081359050611b6481612822565b92915050565b600060208284031215611b7c57600080fd5b6000611b8a84828501611aec565b91505092915050565b600080600080600060a08688031215611bab57600080fd5b6000611bb988828901611aec565b955050602086013567ffffffffffffffff811115611bd657600080fd5b611be288828901611b01565b945050604086013567ffffffffffffffff811115611bff57600080fd5b611c0b88828901611b01565b935050606086013567ffffffffffffffff811115611c2857600080fd5b611c3488828901611b01565b925050608086013567ffffffffffffffff811115611c5157600080fd5b611c5d88828901611b01565b9150509295509295909350565b60008060008060008060c08789031215611c8357600080fd5b6000611c9189828a01611aec565b965050602087013567ffffffffffffffff811115611cae57600080fd5b611cba89828a01611b01565b955050604087013567ffffffffffffffff811115611cd757600080fd5b611ce389828a01611b01565b945050606087013567ffffffffffffffff811115611d0057600080fd5b611d0c89828a01611b01565b935050608087013567ffffffffffffffff811115611d2957600080fd5b611d3589828a01611b01565b92505060a087013567ffffffffffffffff811115611d5257600080fd5b611d5e89828a01611b01565b9150509295509295509295565b600080600080600060a08688031215611d8357600080fd5b6000611d9188828901611aec565b9550506020611da288828901611b55565b945050604086013567ffffffffffffffff811115611dbf57600080fd5b611dcb88828901611b01565b935050606086013567ffffffffffffffff811115611de857600080fd5b611df488828901611b01565b925050608086013567ffffffffffffffff811115611e1157600080fd5b611e1d88828901611b01565b9150509295509295909350565b600080600080600060a08688031215611e4257600080fd5b600086013567ffffffffffffffff811115611e5c57600080fd5b611e6888828901611b01565b955050602086013567ffffffffffffffff811115611e8557600080fd5b611e9188828901611b01565b9450506040611ea288828901611b55565b9350506060611eb388828901611b55565b9250506080611ec488828901611b55565b9150509295509295909350565b6000611edd8383612126565b905092915050565b611ef6611ef1826126b4565b6127a5565b82525050565b611f05816126a2565b82525050565b611f14816126a2565b82525050565b6000611f2582612615565b611f2f8185612638565b935083602082028501611f41856125f0565b8060005b85811015611f7d5784840389528151611f5e8582611ed1565b9450611f698361262b565b925060208a01995050600181019050611f45565b50829750879550505050505092915050565b611f9881612703565b82525050565b6000611fa982612620565b611fb38185612649565b9350611fc3818560208601612724565b611fcc816127d3565b840191505092915050565b600081546001811660008114611ff4576001811461201a5761205e565b607f60028304166120058187612649565b955060ff19831686526020860193505061205e565b600282046120288187612649565b955061203385612600565b60005b8281101561205557815481890152600182019150602081019050612036565b80880195505050505b505092915050565b600061207360198361265a565b91507f4f6c697665206974656d20646f6573206e6f74206578697374000000000000006000830152602082019050919050565b60006120b3600d8361265a565b91507f6e6f7420486172766573746564000000000000000000000000000000000000006000830152602082019050919050565b60006120f3600b8361265a565b91507f6e6f7420506c616e7465640000000000000000000000000000000000000000006000830152602082019050919050565b600060e08301600083015161213e6000860182611efc565b50602083015184820360208601526121568282611f9e565b915050604083015184820360408601526121708282611f9e565b9150506060830151848203606086015261218a8282611f9e565b915050608083015184820360808601526121a48282611f9e565b91505060a08301516121b960a0860182611efc565b5060c083015184820360c08601526121d18282611f9e565b9150508091505092915050565b6000610160830160008301516121f76000860182611efc565b50602083015161220a6020860182611efc565b50604083015161221d6040860182612434565b50606083015184820360608601526122358282611f9e565b9150506080830151848203608086015261224f8282611f9e565b91505060a083015184820360a08601526122698282611f9e565b91505060c083015184820360c08601526122838282611f9e565b91505060e083015184820360e086015261229d8282611f9e565b9150506101008301518482036101008601526122b98282611f9e565b9150506101208301518482036101208601526122d58282611f9e565b9150506101408301516122ec610140860182611f8f565b508091505092915050565b60006101608301600080840154905061230f81612757565b61231c6000870182611efc565b506001840154905061232d81612757565b61233a6020870182611efc565b506002840154905061234b8161278b565b6123586040870182612434565b5060038401858303606087015261236f8382611fd7565b9250506004840185830360808701526123888382611fd7565b9250506005840185830360a08701526123a18382611fd7565b9250506006840185830360c08701526123ba8382611fd7565b9250506007840185830360e08701526123d38382611fd7565b925050600884018583036101008701526123ed8382611fd7565b925050600984018583036101208701526124078382611fd7565b925050600a840154905061241a81612771565b612428610140870182611f8f565b50819250505092915050565b61243d816126f9565b82525050565b61245461244f826126f9565b6127c9565b82525050565b60006124668285611ee5565b6014820191506124768284612443565b6020820191508190509392505050565b600060208201905061249b6000830184611f0b565b92915050565b60006040820190506124b66000830185611f0b565b81810360208301526124c881846121de565b90509392505050565b600060208201905081810360008301526124eb8184611f1a565b905092915050565b6000602082019050818103600083015261250c81612066565b9050919050565b6000602082019050818103600083015261252c816120a6565b9050919050565b6000602082019050818103600083015261254c816120e6565b9050919050565b6000602082019050818103600083015261256d81846121de565b905092915050565b6000602082019050818103600083015261258f81846122f7565b905092915050565b6000604051905081810181811067ffffffffffffffff821117156125ba57600080fd5b8060405250919050565b600067ffffffffffffffff8211156125db57600080fd5b601f19601f8301169050602081019050919050565b6000819050602082019050919050565b60008190508160005260206000209050919050565b600081519050919050565b600081519050919050565b6000602082019050919050565b600082825260208201905092915050565b600082825260208201905092915050565b600082825260208201905092915050565b600073ffffffffffffffffffffffffffffffffffffffff82169050919050565b600060ff82169050919050565b6000819050919050565b60006126ad826126d9565b9050919050565b60006126bf826126d9565b9050919050565b60008190506126d4826127fe565b919050565b600073ffffffffffffffffffffffffffffffffffffffff82169050919050565b6000819050919050565b600061270e826126c6565b9050919050565b82818337600083830152505050565b60005b83811015612742578082015181840152602081019050612727565b83811115612751576000848401525b50505050565b600061276a612765836127f1565b61266b565b9050919050565b600061278461277f836127f1565b61268b565b9050919050565b600061279e612799836127f1565b612698565b9050919050565b60006127b0826127b7565b9050919050565b60006127c2826127e4565b9050919050565b6000819050919050565b6000601f19601f8301169050919050565b60008160601b9050919050565b60008160001c9050919050565b6005811061280857fe5b50565b612814816126a2565b811461281f57600080fd5b50565b61282b816126f9565b811461283657600080fd5b5056fea365627a7a72315820be126625b906e6965eee4f05771eaceb6dff9f2f4040ef82d44e8d22850331fa6c6578706572696d656e74616cf564736f6c63430005100040",
  "source": "// SPDX-License-Identifier: MIT\r\n\r\npragma solidity  >=0.4.22;\r\n\r\npragma experimental ABIEncoderV2;\r\n\r\n// Define a contract 'Supplychain'\r\ncontract SupplyChain\r\n   \r\n{\r\n    \r\n    // olive_upc -> oliveItem\r\n    mapping(address => LandPlot) landPlots;\r\n\r\n    // olive_upc -> oliveItem\r\n    mapping(address => OliveItem) oliveItems;\r\n   \r\n    // oil_upc -> olive_upc[]\r\n    mapping(uint256 => uint256[]) oilolives;\r\n\r\n    // olive_upc -> certificationItem[]\r\n    mapping(address => CertificationItem[]) oliveCertifications;\r\n\r\n    // Define enum 'State' with the following values:\r\n    enum OliveState {\r\n        Planted,\r\n        Harvested,\r\n        produced,\r\n        Audited,\r\n        Processed\r\n    }\r\n    OliveState constant defaultOliveState = OliveState.Planted;\r\n\r\n    // Define a struct 'oliveItem' with the following fields:\r\n    struct LandPlot {\r\n        address id_land;\r\n        string geo_loc;\r\n        string sail_typ; \r\n        uint alt; \r\n        uint nb_tree; \r\n        uint id_farmer;\r\n    }\r\n    // Define a struct 'oliveItem' with the following fields:\r\n    struct OliveItem {\r\n        address oliveID;\r\n        address ownerID; // Metamask-Ethereum address of the current owner as the product moves through stages\r\n        uint landID; // Metamask-Ethereum address of the Farmer\r\n        string numberTree; // number Tree\r\n        string oliveVariety; // olive Variety\r\n        string plantingDate; // planting Date\r\n        string harvStarDate;\r\n        string harvEndDate;\r\n        string harvMeth;\r\n        string storTemp;\r\n        OliveState itemState; // Product State as represented in the enum above\r\n    }\r\nstruct CertificationItem {\r\n        address certID; // Metamask-Ethereum address of the certification item\r\n        string certName; // name of the certification\r\n        string certAgency; // certification agency\r\n        string certDate; // certification date\r\n        string certValidUntil; // certification validity period\r\n        address oliveID; // Metamask-Ethereum address of the olive item being certified\r\n        string ipfsUrl;\r\n    }\r\n  \r\n\r\n    // Define events of olives\r\n    event LandCreated(address _idLand);\r\n    event OlivePlanted(address _oliveID,OliveItem _oliveitems1);\r\n    event OliveHarvested(address indexed _oliveID,OliveItem _oliveitems);\r\n    event OliveProduced(address _oliveID);\r\n\r\n   \r\n\r\n    \r\n    // Define a modifier that checks if an oliveItem.state of a upc is Planted\r\n    modifier isPlanted(address _oliveID) {\r\n        require(\r\n            oliveItems[_oliveID].itemState == OliveState.Planted,\r\n            \"not Planted\"\r\n        );\r\n        _;\r\n    }\r\n\r\n    // Define a modifier that checks if an oliveItem.state of a upc is Harvested\r\n    modifier isHarvested(address _oliveID) {\r\n        require(\r\n            oliveItems[_oliveID].itemState == OliveState.Harvested,\r\n            \"not Harvested\"\r\n        );\r\n        _;\r\n    }\r\n\r\n   \r\n\r\n \r\n\r\n    function addLand( \r\n        string  memory _geoLoc,\r\n        string memory _sailTyp,\r\n        uint256 _alt,\r\n        uint256 _nbTree,\r\n        uint _originFarmerID\r\n    ) public {\r\n        address _LandID = address(uint160(uint(keccak256(abi.encodePacked(msg.sender, block.number))))); // generate a new unique Ethereum address\r\n        // Add the new item as part of Harvest\r\n        LandPlot memory newLandPlot = LandPlot({\r\n            id_land : _LandID,\r\n            geo_loc : _geoLoc,\r\n            sail_typ : _sailTyp,\r\n            alt : _alt,\r\n            nb_tree : _nbTree,\r\n            id_farmer : _originFarmerID\r\n            });\r\n\r\n        landPlots[_LandID] = newLandPlot;\r\n        \r\n    \r\n        // Emit the appropriate event\r\n        emit LandCreated(_LandID);\r\n    }\r\n    // Transfer Eth to owner and terminate contract\r\n   \r\n    // Define a function 'olivePlantItem' that allows a farmer to mark an item 'Planted'\r\n    function olivePlantItem(\r\n        address ownerID,\r\n        uint landID, \r\n        string memory numberTree,\r\n        string memory oliveVariety,\r\n        string memory plantingDate\r\n\r\n        \r\n    ) public {\r\n        address _oliveID = address(uint160(uint(keccak256(abi.encodePacked(msg.sender, block.number))))); // generate a new unique Ethereum address\r\n\r\n        OliveItem memory newOliveItem = OliveItem({\r\n            oliveID:_oliveID,\r\n            ownerID : ownerID,\r\n            landID : landID,\r\n            numberTree : numberTree,\r\n            oliveVariety :oliveVariety,\r\n            plantingDate : plantingDate,\r\n            harvStarDate : \"\",\r\n            harvEndDate : \"\",\r\n            harvMeth : \"\",\r\n            storTemp : \"\",\r\n            itemState : OliveState.Planted\r\n            });\r\n\r\n        oliveItems[_oliveID] = newOliveItem;\r\n        \r\n        emit OlivePlanted(_oliveID,newOliveItem);\r\n    }\r\n\r\n    // Define a function 'oliveHarvestItem' that allows a farmer to mark an item 'Harvested'\r\n    function oliveHarvestItem(\r\n        address  _oliveID,\r\n        string memory sDate,\r\n        string memory eDate,\r\n        string memory metHar,\r\n        string memory stoTem\r\n    ) public  isPlanted(_oliveID) {\r\n        // Add the new item as part of Harvest\r\n        oliveItems[_oliveID].ownerID = msg.sender;\r\n        oliveItems[_oliveID].harvStarDate = sDate;\r\n        oliveItems[_oliveID].harvEndDate = eDate;\r\n        oliveItems[_oliveID].harvMeth = metHar;\r\n        oliveItems[_oliveID].storTemp = stoTem;\r\n\r\n        // Update state\r\n        oliveItems[_oliveID].itemState = OliveState.Harvested;\r\n        // Emit the appropriate event\r\n        emit OliveHarvested(_oliveID, oliveItems[_oliveID]);\r\n    }\r\n    function oliveProducetItem(\r\n        address _oliveID\r\n\r\n    ) public  isHarvested(_oliveID) {\r\n         // Add the new item as part of Harvest\r\n        oliveItems[_oliveID].ownerID = msg.sender;\r\n       \r\n        // Update state\r\n        oliveItems[_oliveID].itemState = OliveState.produced;\r\n        // Emit the appropriate event\r\n        emit OliveProduced(_oliveID);\r\n    }\r\n    function getHarvestedItem(address _oliveID) public view returns (OliveItem memory) {\r\n        return oliveItems[_oliveID];\r\n    }\r\n    function createCertification(\r\n        address _oliveID,\r\n        string memory _certName,\r\n        string memory _certAgency,\r\n        string memory _certDate,\r\n        string memory _certValidUntil,\r\n        string memory _ipfsURL\r\n    ) public {\r\n        // Verify that the caller is an authorized certifying body\r\n\r\n        \r\n        // Verify that the olive item being certified exists\r\n        require(oliveItems[_oliveID].ownerID != address(0), \"Olive item does not exist\");\r\n        \r\n        // Generate a new unique Ethereum address for the certification item\r\n        address _certID = address(uint160(uint(keccak256(abi.encodePacked(msg.sender, block.number))))); \r\n        \r\n        // Create the new certification item\r\n        CertificationItem memory newCertificationItem = CertificationItem({\r\n            certID : _certID,\r\n            certName : _certName,\r\n            certAgency : _certAgency,\r\n            certDate : _certDate,\r\n            certValidUntil : _certValidUntil,\r\n            oliveID : _oliveID,\r\n            ipfsUrl : _ipfsURL\r\n        });\r\n        \r\n        // Add the new certification item to the list of certifications for the olive item\r\n        oliveCertifications[_oliveID].push(newCertificationItem);\r\n    }\r\n     // Define a function 'getCertifications' that returns the list of certifications for a given olive item\r\n    function getCertifications(address _oliveID) public view returns (CertificationItem[] memory) {\r\n        return oliveCertifications[_oliveID];\r\n    }\r\n    \r\n\r\n}\r\n/*\r\npragma solidity pragma solidity >=0.4.22 <0.9.0;\r\n\r\n\r\ncontract Supplychain{\r\n\r\n    // Variable for Stock keeping Unit (SKU) named 'sku'\r\n//-------------------------------------------\r\n\r\n    //MAPPING:\r\n    // Olive_upc -> OliveItem\r\n    //Oil_upc -> OilItem\r\n    //Oil_upc -> olive_upc[]\r\n//-------------------------------------------\r\n\r\n    //Olive States{planted, harvested, audited, processed}\r\n    \r\n    // Oil States{Created,Blended,Produced,Certified,Packed,ForSale,Purchased}\r\n    //Etat par defaut: Created\r\n//-------------------------------------------\r\n\r\n    //struct Olive Item\r\n    //struct Oil Item\r\n//-------------------------------------------\r\n    // for each enum create an event:\r\n\r\n    // event OlivePlanted\r\n    // event OliveHarvested\r\n    // event OliveAudited\r\n    // event OliveProcessed\r\n    \r\n    //event OilCreated\r\n    //event OilBlended\r\n    //event OilProduced\r\n    //event OilPacked\r\n    //event OilCertified\r\n    //event OilForSale\r\n    //event OilPurshased\r\n\r\n//-------------------------------------------\r\n\r\n    // modifiers:\r\n\r\n    //modifer that verifies the Caller\r\n    //modifier that checks if the paid amount is sufficient to cover the price\r\n    // modifier that checks the price and refunds the remaining balance\r\n    // modifier that checks if an OliveItem.state of a upc is Planted\r\n    // modifier that checks if an OliveItem.state of a upc is Harvested\r\n    // modifier that checks if an OliveItem.state of a upc is Audited\r\n    // modifier that checks if an OliveItem.state of a upc is Processed\r\n    // modifier that checks if an OilItem.state of a upc is Created\r\n    // modifier that checks if an OilItem.state of a upc is Blended\r\n    // modifier that checks if an OilItem.state of a upc is Produced\r\n    // modifier that checks if an OilItem.state of a upc is Packed\r\n    // modifier that checks if an OilItem.state of a upc is Certified\r\n    // modifier that checks if an OilItem.state of a upc is ForSale\r\n    // modifier that checks if an OilItem.state of a upc is Purchased\r\n//-------------------------------------------\r\n    //Constructor to initiate the value of sku to 1\r\n//-------------------------------------------\r\n\r\n\r\n    // function 'OlivePlantItem' that allows a farmer to mark an item 'Planted'\r\n    // function 'grapeHarvestItem' that allows a farmer to mark an item 'Harvested'\r\n    // function 'grapeAuditItem' that allows a Inspector to mark an item 'Audited'\r\n    // function 'grapeProcessItem' that allows a farmer to mark an item 'Processed'\r\n    // function OilCreateItem()\r\n    // function OilBlendItem()\r\n    // function OilProduceItem()\r\n    // function OilCertifyItem()\r\n    // function OilPackItem()\r\n    // function OilSellItem()\r\n    // function OilBuyItem\r\n    // Functions to fetch data:\r\n        // fetchOilItem\r\n        // fetchOliveItem\r\n        // fetchOliveState\r\n}\r\n*/\r\n",
  "sourcePath": "D:\\securite-books\\olive1\\newTest\\pfa\\contracts\\Supplychain.sol",
  "compiler": {
    "name": "solc",
    "version": "0.5.16+commit.9c3226ce.Emscripten.clang"
  },
  "schemaVersion": "3.4.13",
  "updatedAt": "2023-05-20T15:26:39.918Z",
  "networkType": "ethereum",
  "devdoc": {
    "methods": {}
  },
  "userdoc": {
    "methods": {}
  }
}