{
  "contractName": "SupplyChain",
  "abi": [
    {
      "anonymous": false,
      "inputs": [
        {
          "indexed": false,
          "internalType": "address",
          "name": "_idLand",
          "type": "address"
        }
      ],
      "name": "LandCreated",
      "type": "event"
    },
    {
      "anonymous": false,
      "inputs": [
        {
          "indexed": false,
          "internalType": "address",
          "name": "_oliveID",
          "type": "address"
        }
      ],
      "name": "OliveHarvested",
      "type": "event"
    },
    {
      "anonymous": false,
      "inputs": [
        {
          "indexed": false,
          "internalType": "address",
          "name": "_oliveID",
          "type": "address"
        }
      ],
      "name": "OlivePlanted",
      "type": "event"
    },
    {
      "anonymous": false,
      "inputs": [
        {
          "indexed": false,
          "internalType": "address",
          "name": "_oliveID",
          "type": "address"
        }
      ],
      "name": "OliveProduced",
      "type": "event"
    },
    {
      "constant": false,
      "inputs": [
        {
          "internalType": "string",
          "name": "_geoLoc",
          "type": "string"
        },
        {
          "internalType": "string",
          "name": "_sailTyp",
          "type": "string"
        },
        {
          "internalType": "uint256",
          "name": "_alt",
          "type": "uint256"
        },
        {
          "internalType": "uint256",
          "name": "_nbTree",
          "type": "uint256"
        },
        {
          "internalType": "uint256",
          "name": "_originFarmerID",
          "type": "uint256"
        }
      ],
      "name": "addLand",
      "outputs": [],
      "payable": false,
      "stateMutability": "nonpayable",
      "type": "function"
    },
    {
      "constant": false,
      "inputs": [
        {
          "internalType": "address",
          "name": "ownerID",
          "type": "address"
        },
        {
          "internalType": "uint256",
          "name": "landID",
          "type": "uint256"
        },
        {
          "internalType": "string",
          "name": "numberTree",
          "type": "string"
        },
        {
          "internalType": "string",
          "name": "oliveVariety",
          "type": "string"
        },
        {
          "internalType": "string",
          "name": "plantingDate",
          "type": "string"
        }
      ],
      "name": "olivePlantItem",
      "outputs": [],
      "payable": false,
      "stateMutability": "nonpayable",
      "type": "function"
    },
    {
      "constant": false,
      "inputs": [
        {
          "internalType": "address",
          "name": "_oliveID",
          "type": "address"
        }
      ],
      "name": "oliveHarvestItem",
      "outputs": [],
      "payable": false,
      "stateMutability": "nonpayable",
      "type": "function"
    },
    {
      "constant": false,
      "inputs": [
        {
          "internalType": "address",
          "name": "_oliveID",
          "type": "address"
        }
      ],
      "name": "oliveProducetItem",
      "outputs": [],
      "payable": false,
      "stateMutability": "nonpayable",
      "type": "function"
    }
  ],
  "bytecode": "0x608060405234801561001057600080fd5b50610e65806100206000396000f3fe608060405234801561001057600080fd5b506004361061004c5760003560e01c806320c65ca6146100515780635c46e6b6146102645780639e35f7c0146102a8578063dad252d5146102ec575b600080fd5b610262600480360360a081101561006757600080fd5b81019080803573ffffffffffffffffffffffffffffffffffffffff16906020019092919080359060200190929190803590602001906401000000008111156100ae57600080fd5b8201836020820111156100c057600080fd5b803590602001918460018302840111640100000000831117156100e257600080fd5b91908080601f016020809104026020016040519081016040528093929190818152602001838380828437600081840152601f19601f8201169050808301925050505050505091929192908035906020019064010000000081111561014557600080fd5b82018360208201111561015757600080fd5b8035906020019184600183028401116401000000008311171561017957600080fd5b91908080601f016020809104026020016040519081016040528093929190818152602001838380828437600081840152601f19601f820116905080830192505050505050509192919290803590602001906401000000008111156101dc57600080fd5b8201836020820111156101ee57600080fd5b8035906020019184600183028401116401000000008311171561021057600080fd5b91908080601f016020809104026020016040519081016040528093929190818152602001838380828437600081840152601f19601f82011690508083019250505050505050919291929050505061045c565b005b6102a66004803603602081101561027a57600080fd5b81019080803573ffffffffffffffffffffffffffffffffffffffff16906020019092919050505061069a565b005b6102ea600480360360208110156102be57600080fd5b81019080803573ffffffffffffffffffffffffffffffffffffffff1690602001909291905050506108c1565b005b61045a600480360360a081101561030257600080fd5b810190808035906020019064010000000081111561031f57600080fd5b82018360208201111561033157600080fd5b8035906020019184600183028401116401000000008311171561035357600080fd5b91908080601f016020809104026020016040519081016040528093929190818152602001838380828437600081840152601f19601f820116905080830192505050505050509192919290803590602001906401000000008111156103b657600080fd5b8201836020820111156103c857600080fd5b803590602001918460018302840111640100000000831117156103ea57600080fd5b91908080601f016020809104026020016040519081016040528093929190818152602001838380828437600081840152601f19601f820116905080830192505050505050509192919290803590602001909291908035906020019092919080359060200190929190505050610ae9565b005b610464610ce8565b6040518060c001604052808773ffffffffffffffffffffffffffffffffffffffff168152602001868152602001858152602001848152602001838152602001600060048111156104b057fe5b815250905060003343604051602001808373ffffffffffffffffffffffffffffffffffffffff1673ffffffffffffffffffffffffffffffffffffffff1660601b8152601401828152602001925050506040516020818303038152906040528051906020012060001c905081600160008373ffffffffffffffffffffffffffffffffffffffff1673ffffffffffffffffffffffffffffffffffffffff16815260200190815260200160002060008201518160000160006101000a81548173ffffffffffffffffffffffffffffffffffffffff021916908373ffffffffffffffffffffffffffffffffffffffff1602179055506020820151816001015560408201518160020190805190602001906105c7929190610d3f565b5060608201518160030190805190602001906105e4929190610d3f565b506080820151816004019080519060200190610601929190610d3f565b5060a08201518160050160006101000a81548160ff0219169083600481111561062657fe5b02179055509050507f260c237b047ef8f9c081e58c932ea779200fac37d5e8780170b889cb98b4651681604051808273ffffffffffffffffffffffffffffffffffffffff1673ffffffffffffffffffffffffffffffffffffffff16815260200191505060405180910390a150505050505050565b80600060048111156106a857fe5b600160008373ffffffffffffffffffffffffffffffffffffffff1673ffffffffffffffffffffffffffffffffffffffff16815260200190815260200160002060050160009054906101000a900460ff16600481111561070357fe5b14610776576040517f08c379a000000000000000000000000000000000000000000000000000000000815260040180806020018281038252600b8152602001807f6e6f7420506c616e74656400000000000000000000000000000000000000000081525060200191505060405180910390fd5b33600160008473ffffffffffffffffffffffffffffffffffffffff1673ffffffffffffffffffffffffffffffffffffffff16815260200190815260200160002060000160006101000a81548173ffffffffffffffffffffffffffffffffffffffff021916908373ffffffffffffffffffffffffffffffffffffffff16021790555060018060008473ffffffffffffffffffffffffffffffffffffffff1673ffffffffffffffffffffffffffffffffffffffff16815260200190815260200160002060050160006101000a81548160ff0219169083600481111561085557fe5b02179055507fdf625ba90e2439e1b7fe4e077534b96f390a91277139e7474e718da9660d481882604051808273ffffffffffffffffffffffffffffffffffffffff1673ffffffffffffffffffffffffffffffffffffffff16815260200191505060405180910390a15050565b80600160048111156108cf57fe5b600160008373ffffffffffffffffffffffffffffffffffffffff1673ffffffffffffffffffffffffffffffffffffffff16815260200190815260200160002060050160009054906101000a900460ff16600481111561092a57fe5b1461099d576040517f08c379a000000000000000000000000000000000000000000000000000000000815260040180806020018281038252600d8152602001807f6e6f74204861727665737465640000000000000000000000000000000000000081525060200191505060405180910390fd5b33600160008473ffffffffffffffffffffffffffffffffffffffff1673ffffffffffffffffffffffffffffffffffffffff16815260200190815260200160002060000160006101000a81548173ffffffffffffffffffffffffffffffffffffffff021916908373ffffffffffffffffffffffffffffffffffffffff1602179055506002600160008473ffffffffffffffffffffffffffffffffffffffff1673ffffffffffffffffffffffffffffffffffffffff16815260200190815260200160002060050160006101000a81548160ff02191690836004811115610a7d57fe5b02179055507f40d48790f66b749a98451777ddcb02fcc5d9de62421fa16a27df78034acdfc2082604051808273ffffffffffffffffffffffffffffffffffffffff1673ffffffffffffffffffffffffffffffffffffffff16815260200191505060405180910390a15050565b60003343604051602001808373ffffffffffffffffffffffffffffffffffffffff1673ffffffffffffffffffffffffffffffffffffffff1660601b8152601401828152602001925050506040516020818303038152906040528051906020012060001c9050610b56610dbf565b6040518060c001604052808373ffffffffffffffffffffffffffffffffffffffff168152602001888152602001878152602001868152602001858152602001848152509050806000808473ffffffffffffffffffffffffffffffffffffffff1673ffffffffffffffffffffffffffffffffffffffff16815260200190815260200160002060008201518160000160006101000a81548173ffffffffffffffffffffffffffffffffffffffff021916908373ffffffffffffffffffffffffffffffffffffffff1602179055506020820151816001019080519060200190610c3d929190610d3f565b506040820151816002019080519060200190610c5a929190610d3f565b50606082015181600301556080820151816004015560a082015181600501559050507f633a583eca39761ad94371f5e5b21177609345bcd86c0921495021e3604fe18b82604051808273ffffffffffffffffffffffffffffffffffffffff1673ffffffffffffffffffffffffffffffffffffffff16815260200191505060405180910390a150505050505050565b6040518060c00160405280600073ffffffffffffffffffffffffffffffffffffffff1681526020016000815260200160608152602001606081526020016060815260200160006004811115610d3957fe5b81525090565b828054600181600116156101000203166002900490600052602060002090601f016020900481019282601f10610d8057805160ff1916838001178555610dae565b82800160010185558215610dae579182015b82811115610dad578251825591602001919060010190610d92565b5b509050610dbb9190610e0b565b5090565b6040518060c00160405280600073ffffffffffffffffffffffffffffffffffffffff16815260200160608152602001606081526020016000815260200160008152602001600081525090565b610e2d91905b80821115610e29576000816000905550600101610e11565b5090565b9056fea265627a7a723158205c05a07615c4340c0ac01566283685d4d7b5e29d6586539612301d27b465856f64736f6c63430005100032",
  "source": "// SPDX-License-Identifier: MIT\n\npragma solidity  >=0.4.22;\n\n\n\n// Define a contract 'Supplychain'\ncontract SupplyChain\n   \n{\n    \n    // olive_upc -> oliveItem\n    mapping(address => LandPlot) landPlots;\n\n    // olive_upc -> oliveItem\n    mapping(address => OliveItem) oliveItems;\n   \n    // oil_upc -> olive_upc[]\n    mapping(uint256 => uint256[]) oilolives;\n\n    // Define enum 'State' with the following values:\n    enum OliveState {\n        Planted,\n        Harvested,\n        produced,\n        Audited,\n        Processed\n    }\n    OliveState constant defaultOliveState = OliveState.Planted;\n\n    // Define a struct 'oliveItem' with the following fields:\n    struct LandPlot {\n        address id_land;\n        string geo_loc;\n        string sail_typ; \n        uint alt; \n        uint nb_tree; \n        uint id_farmer;\n    }\n    // Define a struct 'oliveItem' with the following fields:\n    struct OliveItem {\n        address ownerID; // Metamask-Ethereum address of the current owner as the product moves through stages\n        uint landID; // Metamask-Ethereum address of the Farmer\n        string numberTree; // number Tree\n        string oliveVariety; // olive Variety\n        string plantingDate; // planting Date\n        OliveState itemState; // Product State as represented in the enum above\n    }\n\n   \n\n    // Define events of olives\n    event LandCreated(address _idLand);\n    event OlivePlanted(address _oliveID);\n    event OliveHarvested(address _oliveID);\n    event OliveProduced(address _oliveID);\n\n   \n\n    \n    // Define a modifier that checks if an oliveItem.state of a upc is Planted\n    modifier isPlanted(address _oliveID) {\n        require(\n            oliveItems[_oliveID].itemState == OliveState.Planted,\n            \"not Planted\"\n        );\n        _;\n    }\n\n    // Define a modifier that checks if an oliveItem.state of a upc is Harvested\n    modifier isHarvested(address _oliveID) {\n        require(\n            oliveItems[_oliveID].itemState == OliveState.Harvested,\n            \"not Harvested\"\n        );\n        _;\n    }\n\n   \n\n \n\n    function addLand( \n        string memory _geoLoc,\n        string memory _sailTyp,\n        uint256 _alt,\n        uint256 _nbTree,\n        uint _originFarmerID\n    ) public {\n        address _LandID = address(uint160(uint(keccak256(abi.encodePacked(msg.sender, block.number))))); // generate a new unique Ethereum address\n        // Add the new item as part of Harvest\n        LandPlot memory newLandPlot = LandPlot({\n            id_land : _LandID,\n            geo_loc : _geoLoc,\n            sail_typ : _sailTyp,\n            alt : _alt,\n            nb_tree : _nbTree,\n            id_farmer : _originFarmerID\n            });\n\n        landPlots[_LandID] = newLandPlot;\n        \n    \n        // Emit the appropriate event\n        emit LandCreated(_LandID);\n    }\n    // Transfer Eth to owner and terminate contract\n   \n    // Define a function 'olivePlantItem' that allows a farmer to mark an item 'Planted'\n    function olivePlantItem(\n        address ownerID,\n        uint landID, \n        string memory numberTree,\n        string memory oliveVariety,\n        string memory plantingDate\n\n        \n    ) public {\n        OliveItem memory newOliveItem = OliveItem({\n            ownerID : ownerID,\n            landID : landID,\n            numberTree : numberTree,\n            oliveVariety :oliveVariety,\n            plantingDate : plantingDate,\n            itemState : OliveState.Planted\n            });\n        address _oliveID = address(uint160(uint(keccak256(abi.encodePacked(msg.sender, block.number))))); // generate a new unique Ethereum address\n\n        oliveItems[_oliveID] = newOliveItem;\n        \n        emit OlivePlanted(_oliveID);\n    }\n\n    // Define a function 'oliveHarvestItem' that allows a farmer to mark an item 'Harvested'\n    function oliveHarvestItem(\n        address _oliveID\n\n    ) public  isPlanted(_oliveID) {\n        // Add the new item as part of Harvest\n        oliveItems[_oliveID].ownerID = msg.sender;\n        \n        // Update state\n        oliveItems[_oliveID].itemState = OliveState.Harvested;\n        // Emit the appropriate event\n        emit OliveHarvested(_oliveID);\n    }\n    function oliveProducetItem(\n        address _oliveID\n\n    ) public  isHarvested(_oliveID) {\n         // Add the new item as part of Harvest\n        oliveItems[_oliveID].ownerID = msg.sender;\n        \n        // Update state\n        oliveItems[_oliveID].itemState = OliveState.produced;\n        // Emit the appropriate event\n        emit OliveProduced(_oliveID);\n    }\n    \n\n}\n/*\npragma solidity pragma solidity >=0.4.22 <0.9.0;\n\n\ncontract Supplychain{\n\n    // Variable for Stock keeping Unit (SKU) named 'sku'\n//-------------------------------------------\n\n    //MAPPING:\n    // Olive_upc -> OliveItem\n    //Oil_upc -> OilItem\n    //Oil_upc -> olive_upc[]\n//-------------------------------------------\n\n    //Olive States{planted, harvested, audited, processed}\n    \n    // Oil States{Created,Blended,Produced,Certified,Packed,ForSale,Purchased}\n    //Etat par defaut: Created\n//-------------------------------------------\n\n    //struct Olive Item\n    //struct Oil Item\n//-------------------------------------------\n    // for each enum create an event:\n\n    // event OlivePlanted\n    // event OliveHarvested\n    // event OliveAudited\n    // event OliveProcessed\n    \n    //event OilCreated\n    //event OilBlended\n    //event OilProduced\n    //event OilPacked\n    //event OilCertified\n    //event OilForSale\n    //event OilPurshased\n\n//-------------------------------------------\n\n    // modifiers:\n\n    //modifer that verifies the Caller\n    //modifier that checks if the paid amount is sufficient to cover the price\n    // modifier that checks the price and refunds the remaining balance\n    // modifier that checks if an OliveItem.state of a upc is Planted\n    // modifier that checks if an OliveItem.state of a upc is Harvested\n    // modifier that checks if an OliveItem.state of a upc is Audited\n    // modifier that checks if an OliveItem.state of a upc is Processed\n    // modifier that checks if an OilItem.state of a upc is Created\n    // modifier that checks if an OilItem.state of a upc is Blended\n    // modifier that checks if an OilItem.state of a upc is Produced\n    // modifier that checks if an OilItem.state of a upc is Packed\n    // modifier that checks if an OilItem.state of a upc is Certified\n    // modifier that checks if an OilItem.state of a upc is ForSale\n    // modifier that checks if an OilItem.state of a upc is Purchased\n//-------------------------------------------\n    //Constructor to initiate the value of sku to 1\n//-------------------------------------------\n\n\n    // function 'OlivePlantItem' that allows a farmer to mark an item 'Planted'\n    // function 'grapeHarvestItem' that allows a farmer to mark an item 'Harvested'\n    // function 'grapeAuditItem' that allows a Inspector to mark an item 'Audited'\n    // function 'grapeProcessItem' that allows a farmer to mark an item 'Processed'\n    // function OilCreateItem()\n    // function OilBlendItem()\n    // function OilProduceItem()\n    // function OilCertifyItem()\n    // function OilPackItem()\n    // function OilSellItem()\n    // function OilBuyItem\n    // Functions to fetch data:\n        // fetchOilItem\n        // fetchOliveItem\n        // fetchOliveState\n}\n*/\n",
  "sourcePath": "D:\\securite-books\\olive1\\newTest\\pfa\\contracts\\Supplychain.sol",
  "compiler": {
    "name": "solc",
    "version": "0.5.16+commit.9c3226ce.Emscripten.clang"
  },
  "schemaVersion": "3.4.13",
  "updatedAt": "2023-04-22T11:30:57.876Z",
  "networkType": "ethereum",
  "devdoc": {
    "methods": {}
  },
  "userdoc": {
    "methods": {}
  }
}